{
  "_format": "hh-sol-artifact-1",
  "contractName": "AssetDNFT",
  "sourceName": "contracts/asset-dNFT.sol",
  "abi": [
    {
      "inputs": [
        {
          "internalType": "address",
          "name": "oracleRegistryAddress",
          "type": "address"
        }
      ],
      "stateMutability": "nonpayable",
      "type": "constructor"
    },
    {
      "inputs": [],
      "name": "AccessControlBadConfirmation",
      "type": "error"
    },
    {
      "inputs": [
        {
          "internalType": "address",
          "name": "account",
          "type": "address"
        },
        {
          "internalType": "bytes32",
          "name": "neededRole",
          "type": "bytes32"
        }
      ],
      "name": "AccessControlUnauthorizedAccount",
      "type": "error"
    },
    {
      "inputs": [],
      "name": "ECDSAInvalidSignature",
      "type": "error"
    },
    {
      "inputs": [
        {
          "internalType": "uint256",
          "name": "length",
          "type": "uint256"
        }
      ],
      "name": "ECDSAInvalidSignatureLength",
      "type": "error"
    },
    {
      "inputs": [
        {
          "internalType": "bytes32",
          "name": "s",
          "type": "bytes32"
        }
      ],
      "name": "ECDSAInvalidSignatureS",
      "type": "error"
    },
    {
      "inputs": [],
      "name": "ERC721EnumerableForbiddenBatchMint",
      "type": "error"
    },
    {
      "inputs": [
        {
          "internalType": "address",
          "name": "sender",
          "type": "address"
        },
        {
          "internalType": "uint256",
          "name": "tokenId",
          "type": "uint256"
        },
        {
          "internalType": "address",
          "name": "owner",
          "type": "address"
        }
      ],
      "name": "ERC721IncorrectOwner",
      "type": "error"
    },
    {
      "inputs": [
        {
          "internalType": "address",
          "name": "operator",
          "type": "address"
        },
        {
          "internalType": "uint256",
          "name": "tokenId",
          "type": "uint256"
        }
      ],
      "name": "ERC721InsufficientApproval",
      "type": "error"
    },
    {
      "inputs": [
        {
          "internalType": "address",
          "name": "approver",
          "type": "address"
        }
      ],
      "name": "ERC721InvalidApprover",
      "type": "error"
    },
    {
      "inputs": [
        {
          "internalType": "address",
          "name": "operator",
          "type": "address"
        }
      ],
      "name": "ERC721InvalidOperator",
      "type": "error"
    },
    {
      "inputs": [
        {
          "internalType": "address",
          "name": "owner",
          "type": "address"
        }
      ],
      "name": "ERC721InvalidOwner",
      "type": "error"
    },
    {
      "inputs": [
        {
          "internalType": "address",
          "name": "receiver",
          "type": "address"
        }
      ],
      "name": "ERC721InvalidReceiver",
      "type": "error"
    },
    {
      "inputs": [
        {
          "internalType": "address",
          "name": "sender",
          "type": "address"
        }
      ],
      "name": "ERC721InvalidSender",
      "type": "error"
    },
    {
      "inputs": [
        {
          "internalType": "uint256",
          "name": "tokenId",
          "type": "uint256"
        }
      ],
      "name": "ERC721NonexistentToken",
      "type": "error"
    },
    {
      "inputs": [
        {
          "internalType": "address",
          "name": "owner",
          "type": "address"
        },
        {
          "internalType": "uint256",
          "name": "index",
          "type": "uint256"
        }
      ],
      "name": "ERC721OutOfBoundsIndex",
      "type": "error"
    },
    {
      "anonymous": false,
      "inputs": [
        {
          "indexed": true,
          "internalType": "address",
          "name": "owner",
          "type": "address"
        },
        {
          "indexed": true,
          "internalType": "address",
          "name": "approved",
          "type": "address"
        },
        {
          "indexed": true,
          "internalType": "uint256",
          "name": "tokenId",
          "type": "uint256"
        }
      ],
      "name": "Approval",
      "type": "event"
    },
    {
      "anonymous": false,
      "inputs": [
        {
          "indexed": true,
          "internalType": "address",
          "name": "owner",
          "type": "address"
        },
        {
          "indexed": true,
          "internalType": "address",
          "name": "operator",
          "type": "address"
        },
        {
          "indexed": false,
          "internalType": "bool",
          "name": "approved",
          "type": "bool"
        }
      ],
      "name": "ApprovalForAll",
      "type": "event"
    },
    {
      "anonymous": false,
      "inputs": [
        {
          "indexed": false,
          "internalType": "uint256",
          "name": "processNumber",
          "type": "uint256"
        },
        {
          "indexed": false,
          "internalType": "string",
          "name": "tokenId",
          "type": "string"
        },
        {
          "indexed": false,
          "internalType": "string",
          "name": "timestamp",
          "type": "string"
        },
        {
          "indexed": false,
          "internalType": "string",
          "name": "preqType",
          "type": "string"
        },
        {
          "indexed": false,
          "internalType": "uint256",
          "name": "preqPower",
          "type": "uint256"
        },
        {
          "indexed": false,
          "internalType": "string",
          "name": "preqResult",
          "type": "string"
        }
      ],
      "name": "PrequalificationCompleted",
      "type": "event"
    },
    {
      "anonymous": false,
      "inputs": [
        {
          "indexed": false,
          "internalType": "string",
          "name": "tokenId",
          "type": "string"
        },
        {
          "indexed": false,
          "internalType": "address",
          "name": "oracleID",
          "type": "address"
        },
        {
          "indexed": false,
          "internalType": "string",
          "name": "preqType",
          "type": "string"
        },
        {
          "indexed": false,
          "internalType": "string",
          "name": "assetType",
          "type": "string"
        },
        {
          "indexed": false,
          "internalType": "uint256",
          "name": "preqPowerTarget",
          "type": "uint256"
        },
        {
          "indexed": false,
          "internalType": "uint256",
          "name": "preqPowerStart",
          "type": "uint256"
        },
        {
          "indexed": false,
          "internalType": "uint256",
          "name": "processNumber",
          "type": "uint256"
        }
      ],
      "name": "PrequalificationRequested",
      "type": "event"
    },
    {
      "anonymous": false,
      "inputs": [
        {
          "indexed": true,
          "internalType": "bytes32",
          "name": "role",
          "type": "bytes32"
        },
        {
          "indexed": true,
          "internalType": "bytes32",
          "name": "previousAdminRole",
          "type": "bytes32"
        },
        {
          "indexed": true,
          "internalType": "bytes32",
          "name": "newAdminRole",
          "type": "bytes32"
        }
      ],
      "name": "RoleAdminChanged",
      "type": "event"
    },
    {
      "anonymous": false,
      "inputs": [
        {
          "indexed": true,
          "internalType": "bytes32",
          "name": "role",
          "type": "bytes32"
        },
        {
          "indexed": true,
          "internalType": "address",
          "name": "account",
          "type": "address"
        },
        {
          "indexed": true,
          "internalType": "address",
          "name": "sender",
          "type": "address"
        }
      ],
      "name": "RoleGranted",
      "type": "event"
    },
    {
      "anonymous": false,
      "inputs": [
        {
          "indexed": true,
          "internalType": "bytes32",
          "name": "role",
          "type": "bytes32"
        },
        {
          "indexed": true,
          "internalType": "address",
          "name": "account",
          "type": "address"
        },
        {
          "indexed": true,
          "internalType": "address",
          "name": "sender",
          "type": "address"
        }
      ],
      "name": "RoleRevoked",
      "type": "event"
    },
    {
      "anonymous": false,
      "inputs": [
        {
          "indexed": true,
          "internalType": "address",
          "name": "from",
          "type": "address"
        },
        {
          "indexed": true,
          "internalType": "address",
          "name": "to",
          "type": "address"
        },
        {
          "indexed": true,
          "internalType": "uint256",
          "name": "tokenId",
          "type": "uint256"
        }
      ],
      "name": "Transfer",
      "type": "event"
    },
    {
      "inputs": [],
      "name": "DEFAULT_ADMIN_ROLE",
      "outputs": [
        {
          "internalType": "bytes32",
          "name": "",
          "type": "bytes32"
        }
      ],
      "stateMutability": "view",
      "type": "function"
    },
    {
      "inputs": [
        {
          "internalType": "string",
          "name": "tokenId",
          "type": "string"
        },
        {
          "internalType": "string",
          "name": "timestamp",
          "type": "string"
        },
        {
          "internalType": "string",
          "name": "preqType",
          "type": "string"
        },
        {
          "internalType": "uint256",
          "name": "preqPower",
          "type": "uint256"
        },
        {
          "internalType": "string",
          "name": "dataSetHash",
          "type": "string"
        },
        {
          "internalType": "string",
          "name": "preqResult",
          "type": "string"
        }
      ],
      "name": "addPrequalificationAdminSetup",
      "outputs": [],
      "stateMutability": "nonpayable",
      "type": "function"
    },
    {
      "inputs": [
        {
          "internalType": "address",
          "name": "to",
          "type": "address"
        },
        {
          "internalType": "uint256",
          "name": "tokenId",
          "type": "uint256"
        }
      ],
      "name": "approve",
      "outputs": [],
      "stateMutability": "nonpayable",
      "type": "function"
    },
    {
      "inputs": [
        {
          "internalType": "address",
          "name": "owner",
          "type": "address"
        }
      ],
      "name": "balanceOf",
      "outputs": [
        {
          "internalType": "uint256",
          "name": "",
          "type": "uint256"
        }
      ],
      "stateMutability": "view",
      "type": "function"
    },
    {
      "inputs": [
        {
          "internalType": "uint256",
          "name": "tokenId",
          "type": "uint256"
        }
      ],
      "name": "getApproved",
      "outputs": [
        {
          "internalType": "address",
          "name": "",
          "type": "address"
        }
      ],
      "stateMutability": "view",
      "type": "function"
    },
    {
      "inputs": [
        {
          "internalType": "string",
          "name": "tokenId",
          "type": "string"
        }
      ],
      "name": "getDetailedMetadata",
      "outputs": [
        {
          "internalType": "string",
          "name": "ownerDID",
          "type": "string"
        },
        {
          "internalType": "string",
          "name": "assetType",
          "type": "string"
        },
        {
          "internalType": "uint256",
          "name": "installedPower",
          "type": "uint256"
        },
        {
          "internalType": "string[]",
          "name": "preqTypes",
          "type": "string[]"
        }
      ],
      "stateMutability": "view",
      "type": "function"
    },
    {
      "inputs": [
        {
          "internalType": "string",
          "name": "tokenId",
          "type": "string"
        },
        {
          "internalType": "string",
          "name": "preqType",
          "type": "string"
        }
      ],
      "name": "getDetailedPrequalification",
      "outputs": [
        {
          "internalType": "string",
          "name": "Timestamp",
          "type": "string"
        },
        {
          "internalType": "uint256",
          "name": "preqPower",
          "type": "uint256"
        },
        {
          "internalType": "string",
          "name": "dataSetHash",
          "type": "string"
        }
      ],
      "stateMutability": "view",
      "type": "function"
    },
    {
      "inputs": [
        {
          "internalType": "address",
          "name": "oracleAddress",
          "type": "address"
        }
      ],
      "name": "getOracleDID",
      "outputs": [
        {
          "internalType": "string",
          "name": "",
          "type": "string"
        }
      ],
      "stateMutability": "view",
      "type": "function"
    },
    {
      "inputs": [
        {
          "internalType": "bytes32",
          "name": "role",
          "type": "bytes32"
        }
      ],
      "name": "getRoleAdmin",
      "outputs": [
        {
          "internalType": "bytes32",
          "name": "",
          "type": "bytes32"
        }
      ],
      "stateMutability": "view",
      "type": "function"
    },
    {
      "inputs": [
        {
          "internalType": "bytes32",
          "name": "role",
          "type": "bytes32"
        },
        {
          "internalType": "address",
          "name": "account",
          "type": "address"
        }
      ],
      "name": "grantRole",
      "outputs": [],
      "stateMutability": "nonpayable",
      "type": "function"
    },
    {
      "inputs": [
        {
          "internalType": "bytes32",
          "name": "role",
          "type": "bytes32"
        },
        {
          "internalType": "address",
          "name": "account",
          "type": "address"
        }
      ],
      "name": "hasRole",
      "outputs": [
        {
          "internalType": "bool",
          "name": "",
          "type": "bool"
        }
      ],
      "stateMutability": "view",
      "type": "function"
    },
    {
      "inputs": [
        {
          "internalType": "address",
          "name": "owner",
          "type": "address"
        },
        {
          "internalType": "address",
          "name": "operator",
          "type": "address"
        }
      ],
      "name": "isApprovedForAll",
      "outputs": [
        {
          "internalType": "bool",
          "name": "",
          "type": "bool"
        }
      ],
      "stateMutability": "view",
      "type": "function"
    },
    {
      "inputs": [
        {
          "internalType": "string",
          "name": "tokenId",
          "type": "string"
        },
        {
          "internalType": "string",
          "name": "_type",
          "type": "string"
        },
        {
          "internalType": "uint256",
          "name": "_power",
          "type": "uint256"
        },
        {
          "internalType": "string",
          "name": "_ownerDID",
          "type": "string"
        }
      ],
      "name": "mint",
      "outputs": [],
      "stateMutability": "nonpayable",
      "type": "function"
    },
    {
      "inputs": [],
      "name": "name",
      "outputs": [
        {
          "internalType": "string",
          "name": "",
          "type": "string"
        }
      ],
      "stateMutability": "view",
      "type": "function"
    },
    {
      "inputs": [],
      "name": "oracleManager",
      "outputs": [
        {
          "internalType": "contract OracleRegistry",
          "name": "",
          "type": "address"
        }
      ],
      "stateMutability": "view",
      "type": "function"
    },
    {
      "inputs": [
        {
          "internalType": "uint256",
          "name": "tokenId",
          "type": "uint256"
        }
      ],
      "name": "ownerOf",
      "outputs": [
        {
          "internalType": "address",
          "name": "",
          "type": "address"
        }
      ],
      "stateMutability": "view",
      "type": "function"
    },
    {
      "inputs": [
        {
          "internalType": "string",
          "name": "tokenId",
          "type": "string"
        },
        {
          "internalType": "string",
          "name": "timestamp",
          "type": "string"
        },
        {
          "internalType": "string",
          "name": "preqType",
          "type": "string"
        },
        {
          "internalType": "uint256",
          "name": "preqPower",
          "type": "uint256"
        },
        {
          "internalType": "string",
          "name": "dataSetHash",
          "type": "string"
        },
        {
          "internalType": "uint256",
          "name": "processNumber",
          "type": "uint256"
        },
        {
          "internalType": "string",
          "name": "preqResult",
          "type": "string"
        },
        {
          "internalType": "bytes",
          "name": "signature",
          "type": "bytes"
        }
      ],
      "name": "preQualificationOracleCallback",
      "outputs": [],
      "stateMutability": "nonpayable",
      "type": "function"
    },
    {
      "inputs": [
        {
          "internalType": "bytes32",
          "name": "role",
          "type": "bytes32"
        },
        {
          "internalType": "address",
          "name": "callerConfirmation",
          "type": "address"
        }
      ],
      "name": "renounceRole",
      "outputs": [],
      "stateMutability": "nonpayable",
      "type": "function"
    },
    {
      "inputs": [
        {
          "internalType": "bytes32",
          "name": "role",
          "type": "bytes32"
        },
        {
          "internalType": "address",
          "name": "account",
          "type": "address"
        }
      ],
      "name": "revokeRole",
      "outputs": [],
      "stateMutability": "nonpayable",
      "type": "function"
    },
    {
      "inputs": [
        {
          "internalType": "address",
          "name": "from",
          "type": "address"
        },
        {
          "internalType": "address",
          "name": "to",
          "type": "address"
        },
        {
          "internalType": "uint256",
          "name": "tokenId",
          "type": "uint256"
        }
      ],
      "name": "safeTransferFrom",
      "outputs": [],
      "stateMutability": "nonpayable",
      "type": "function"
    },
    {
      "inputs": [
        {
          "internalType": "address",
          "name": "from",
          "type": "address"
        },
        {
          "internalType": "address",
          "name": "to",
          "type": "address"
        },
        {
          "internalType": "uint256",
          "name": "tokenId",
          "type": "uint256"
        },
        {
          "internalType": "bytes",
          "name": "data",
          "type": "bytes"
        }
      ],
      "name": "safeTransferFrom",
      "outputs": [],
      "stateMutability": "nonpayable",
      "type": "function"
    },
    {
      "inputs": [
        {
          "internalType": "address",
          "name": "operator",
          "type": "address"
        },
        {
          "internalType": "bool",
          "name": "approved",
          "type": "bool"
        }
      ],
      "name": "setApprovalForAll",
      "outputs": [],
      "stateMutability": "nonpayable",
      "type": "function"
    },
    {
      "inputs": [
        {
          "internalType": "string",
          "name": "tokenId",
          "type": "string"
        },
        {
          "internalType": "address",
          "name": "oracleAddress",
          "type": "address"
        },
        {
          "internalType": "string",
          "name": "preqType",
          "type": "string"
        },
        {
          "internalType": "string",
          "name": "assetType",
          "type": "string"
        },
        {
          "internalType": "uint256",
          "name": "preqPowerTarget",
          "type": "uint256"
        },
        {
          "internalType": "uint256",
          "name": "preqPowerStart",
          "type": "uint256"
        }
      ],
      "name": "startPrequalification",
      "outputs": [],
      "stateMutability": "nonpayable",
      "type": "function"
    },
    {
      "inputs": [
        {
          "internalType": "bytes4",
          "name": "interfaceId",
          "type": "bytes4"
        }
      ],
      "name": "supportsInterface",
      "outputs": [
        {
          "internalType": "bool",
          "name": "",
          "type": "bool"
        }
      ],
      "stateMutability": "view",
      "type": "function"
    },
    {
      "inputs": [],
      "name": "symbol",
      "outputs": [
        {
          "internalType": "string",
          "name": "",
          "type": "string"
        }
      ],
      "stateMutability": "view",
      "type": "function"
    },
    {
      "inputs": [
        {
          "internalType": "uint256",
          "name": "index",
          "type": "uint256"
        }
      ],
      "name": "tokenByIndex",
      "outputs": [
        {
          "internalType": "uint256",
          "name": "",
          "type": "uint256"
        }
      ],
      "stateMutability": "view",
      "type": "function"
    },
    {
      "inputs": [
        {
          "internalType": "address",
          "name": "owner",
          "type": "address"
        },
        {
          "internalType": "uint256",
          "name": "index",
          "type": "uint256"
        }
      ],
      "name": "tokenOfOwnerByIndex",
      "outputs": [
        {
          "internalType": "uint256",
          "name": "",
          "type": "uint256"
        }
      ],
      "stateMutability": "view",
      "type": "function"
    },
    {
      "inputs": [
        {
          "internalType": "uint256",
          "name": "tokenId",
          "type": "uint256"
        }
      ],
      "name": "tokenURI",
      "outputs": [
        {
          "internalType": "string",
          "name": "",
          "type": "string"
        }
      ],
      "stateMutability": "view",
      "type": "function"
    },
    {
      "inputs": [],
      "name": "totalSupply",
      "outputs": [
        {
          "internalType": "uint256",
          "name": "",
          "type": "uint256"
        }
      ],
      "stateMutability": "view",
      "type": "function"
    },
    {
      "inputs": [
        {
          "internalType": "address",
          "name": "from",
          "type": "address"
        },
        {
          "internalType": "address",
          "name": "to",
          "type": "address"
        },
        {
          "internalType": "uint256",
          "name": "tokenId",
          "type": "uint256"
        }
      ],
      "name": "transferFrom",
      "outputs": [],
      "stateMutability": "nonpayable",
      "type": "function"
    }
  ],
  "bytecode": "0x60806040523480156200001157600080fd5b5060405162005af738038062005af783398181016040528101906200003791906200037a565b6040518060400160405280600781526020017f507265714e4654000000000000000000000000000000000000000000000000008152506040518060400160405280600481526020017f504e4654000000000000000000000000000000000000000000000000000000008152508160009081620000b4919062000626565b508060019081620000c6919062000626565b505050600073ffffffffffffffffffffffffffffffffffffffff168173ffffffffffffffffffffffffffffffffffffffff16036200013b576040517f08c379a000000000000000000000000000000000000000000000000000000000815260040162000132906200076e565b60405180910390fd5b620001506000801b336200019960201b60201c565b5080600b60006101000a81548173ffffffffffffffffffffffffffffffffffffffff021916908373ffffffffffffffffffffffffffffffffffffffff1602179055505062000790565b6000620001ad83836200029d60201b60201c565b62000292576001600a600085815260200190815260200160002060000160008473ffffffffffffffffffffffffffffffffffffffff1673ffffffffffffffffffffffffffffffffffffffff16815260200190815260200160002060006101000a81548160ff0219169083151502179055506200022e6200030860201b60201c565b73ffffffffffffffffffffffffffffffffffffffff168273ffffffffffffffffffffffffffffffffffffffff16847f2f8788117e7eff1d82e926ec794901d17c78024a50270940304540a733656f0d60405160405180910390a46001905062000297565b600090505b92915050565b6000600a600084815260200190815260200160002060000160008373ffffffffffffffffffffffffffffffffffffffff1673ffffffffffffffffffffffffffffffffffffffff16815260200190815260200160002060009054906101000a900460ff16905092915050565b600033905090565b600080fd5b600073ffffffffffffffffffffffffffffffffffffffff82169050919050565b6000620003428262000315565b9050919050565b620003548162000335565b81146200036057600080fd5b50565b600081519050620003748162000349565b92915050565b60006020828403121562000393576200039262000310565b5b6000620003a38482850162000363565b91505092915050565b600081519050919050565b7f4e487b7100000000000000000000000000000000000000000000000000000000600052604160045260246000fd5b7f4e487b7100000000000000000000000000000000000000000000000000000000600052602260045260246000fd5b600060028204905060018216806200042e57607f821691505b602082108103620004445762000443620003e6565b5b50919050565b60008190508160005260206000209050919050565b60006020601f8301049050919050565b600082821b905092915050565b600060088302620004ae7fffffffffffffffffffffffffffffffffffffffffffffffffffffffffffffffff826200046f565b620004ba86836200046f565b95508019841693508086168417925050509392505050565b6000819050919050565b6000819050919050565b60006200050762000501620004fb84620004d2565b620004dc565b620004d2565b9050919050565b6000819050919050565b6200052383620004e6565b6200053b62000532826200050e565b8484546200047c565b825550505050565b600090565b6200055262000543565b6200055f81848462000518565b505050565b5b8181101562000587576200057b60008262000548565b60018101905062000565565b5050565b601f821115620005d657620005a0816200044a565b620005ab846200045f565b81016020851015620005bb578190505b620005d3620005ca856200045f565b83018262000564565b50505b505050565b600082821c905092915050565b6000620005fb60001984600802620005db565b1980831691505092915050565b6000620006168383620005e8565b9150826002028217905092915050565b6200063182620003ac565b67ffffffffffffffff8111156200064d576200064c620003b7565b5b62000659825462000415565b620006668282856200058b565b600060209050601f8311600181146200069e576000841562000689578287015190505b62000695858262000608565b86555062000705565b601f198416620006ae866200044a565b60005b82811015620006d857848901518255600182019150602085019450602081019050620006b1565b86831015620006f85784890151620006f4601f891682620005e8565b8355505b6001600288020188555050505b505050505050565b600082825260208201905092915050565b7f496e76616c6964206f7261636c65207265676973747279206164647265737300600082015250565b600062000756601f836200070d565b915062000763826200071e565b602082019050919050565b60006020820190508181036000830152620007898162000747565b9050919050565b61535780620007a06000396000f3fe608060405234801561001057600080fd5b50600436106101da5760003560e01c80636352211e11610104578063b6cea620116100a2578063d547741f11610071578063d547741f146105a0578063e985e9c5146105bc578063efad4535146105ec578063f0fd28aa1461061e576101da565b8063b6cea6201461051c578063b88d4fde14610538578063c62da30614610554578063c87b56dd14610570576101da565b806391d14854116100de57806391d148541461049457806395d89b41146104c4578063a217fddf146104e2578063a22cb46514610500576101da565b80636352211e1461040157806370a0823114610431578063776719f114610461576101da565b8063248a9ca31161017c57806342842e0e1161014b57806342842e0e146103675780634f6ccce714610383578063565d878c146103b357806356dd6eb1146103d1576101da565b8063248a9ca3146102cf5780632f2ff15d146102ff5780632f745c591461031b57806336568abe1461034b576101da565b8063081812fc116101b8578063081812fc14610249578063095ea7b31461027957806318160ddd1461029557806323b872dd146102b3576101da565b806301012072146101df57806301ffc9a7146101fb57806306fdde031461022b575b600080fd5b6101f960048036038101906101f49190613752565b61063a565b005b61021560048036038101906102109190613865565b61076a565b60405161022291906138ad565b60405180910390f35b61023361077c565b6040516102409190613947565b60405180910390f35b610263600480360381019061025e9190613969565b61080e565b60405161027091906139d7565b60405180910390f35b610293600480360381019061028e9190613a1e565b61082a565b005b61029d610840565b6040516102aa9190613a6d565b60405180910390f35b6102cd60048036038101906102c89190613a88565b61084d565b005b6102e960048036038101906102e49190613b11565b61094f565b6040516102f69190613b4d565b60405180910390f35b61031960048036038101906103149190613b68565b61096f565b005b61033560048036038101906103309190613a1e565b610991565b6040516103429190613a6d565b60405180910390f35b61036560048036038101906103609190613b68565b610a3a565b005b610381600480360381019061037c9190613a88565b610ab5565b005b61039d60048036038101906103989190613969565b610ad5565b6040516103aa9190613a6d565b60405180910390f35b6103bb610b4b565b6040516103c89190613c07565b60405180910390f35b6103eb60048036038101906103e69190613c22565b610b71565b6040516103f89190613947565b60405180910390f35b61041b60048036038101906104169190613969565b610d00565b60405161042891906139d7565b60405180910390f35b61044b60048036038101906104469190613c22565b610d12565b6040516104589190613a6d565b60405180910390f35b61047b60048036038101906104769190613c4f565b610dcc565b60405161048b9493929190613da4565b60405180910390f35b6104ae60048036038101906104a99190613b68565b611001565b6040516104bb91906138ad565b60405180910390f35b6104cc61106c565b6040516104d99190613947565b60405180910390f35b6104ea6110fe565b6040516104f79190613b4d565b60405180910390f35b61051a60048036038101906105159190613e2a565b611105565b005b61053660048036038101906105319190613e6a565b61111b565b005b610552600480360381019061054d9190613fec565b6113b8565b005b61056e6004803603810190610569919061406f565b6113d5565b005b61058a60048036038101906105859190613969565b61143a565b6040516105979190613947565b60405180910390f35b6105ba60048036038101906105b59190613b68565b6114a3565b005b6105d660048036038101906105d19190614188565b6114c5565b6040516105e391906138ad565b60405180910390f35b610606600480360381019061060191906141c8565b611559565b60405161061593929190614240565b60405180910390f35b61063860048036038101906106339190614285565b6116d0565b005b6000801b61064781611996565b60008560405160200161065a919061441f565b6040516020818303038152906040528051906020012060001c905061067f33826119aa565b6000600c87604051610691919061441f565b90815260200160405180910390209050858160010190816106b29190614638565b50848160020181905550838160000190816106cd9190614638565b50600067ffffffffffffffff8111156106e9576106e86135f1565b5b60405190808252806020026020018201604052801561071c57816020015b60608152602001906001900390816107075790505b508160030190805190602001906107349291906134e8565b5083600f88604051610746919061441f565b908152602001604051809103902090816107609190614638565b5050505050505050565b600061077582611aa3565b9050919050565b60606000805461078b90614465565b80601f01602080910402602001604051908101604052809291908181526020018280546107b790614465565b80156108045780601f106107d957610100808354040283529160200191610804565b820191906000526020600020905b8154815290600101906020018083116107e757829003601f168201915b5050505050905090565b600061081982611b1d565b5061082382611ba5565b9050919050565b61083c8282610837611be2565b611bea565b5050565b6000600880549050905090565b600073ffffffffffffffffffffffffffffffffffffffff168273ffffffffffffffffffffffffffffffffffffffff16036108bf5760006040517f64a0ae920000000000000000000000000000000000000000000000000000000081526004016108b691906139d7565b60405180910390fd5b60006108d383836108ce611be2565b611bfc565b90508373ffffffffffffffffffffffffffffffffffffffff168173ffffffffffffffffffffffffffffffffffffffff1614610949578382826040517f64283d7b0000000000000000000000000000000000000000000000000000000081526004016109409392919061470a565b60405180910390fd5b50505050565b6000600a6000838152602001908152602001600020600101549050919050565b6109788261094f565b61098181611996565b61098b8383611d19565b50505050565b600061099c83610d12565b82106109e15782826040517fa57d13dc0000000000000000000000000000000000000000000000000000000081526004016109d8929190614741565b60405180910390fd5b600660008473ffffffffffffffffffffffffffffffffffffffff1673ffffffffffffffffffffffffffffffffffffffff168152602001908152602001600020600083815260200190815260200160002054905092915050565b610a42611be2565b73ffffffffffffffffffffffffffffffffffffffff168173ffffffffffffffffffffffffffffffffffffffff1614610aa6576040517f6697b23200000000000000000000000000000000000000000000000000000000815260040160405180910390fd5b610ab08282611e0b565b505050565b610ad0838383604051806020016040528060008152506113b8565b505050565b6000610adf610840565b8210610b25576000826040517fa57d13dc000000000000000000000000000000000000000000000000000000008152600401610b1c929190614741565b60405180910390fd5b60088281548110610b3957610b3861476a565b5b90600052602060002001549050919050565b600b60009054906101000a900473ffffffffffffffffffffffffffffffffffffffff1681565b6060600b60009054906101000a900473ffffffffffffffffffffffffffffffffffffffff1673ffffffffffffffffffffffffffffffffffffffff1663a97e5c93836040518263ffffffff1660e01b8152600401610bce91906139d7565b602060405180830381865afa158015610beb573d6000803e3d6000fd5b505050506040513d601f19601f82011682018060405250810190610c0f91906147ae565b610c4e576040517f08c379a0000000000000000000000000000000000000000000000000000000008152600401610c459061484d565b60405180910390fd5b6000600b60009054906101000a900473ffffffffffffffffffffffffffffffffffffffff1673ffffffffffffffffffffffffffffffffffffffff166310d3d22e846040518263ffffffff1660e01b8152600401610cab91906139d7565b600060405180830381865afa158015610cc8573d6000803e3d6000fd5b505050506040513d6000823e3d601f19601f82011682018060405250810190610cf19190614968565b90508060200151915050919050565b6000610d0b82611b1d565b9050919050565b60008073ffffffffffffffffffffffffffffffffffffffff168273ffffffffffffffffffffffffffffffffffffffff1603610d855760006040517f89c62b64000000000000000000000000000000000000000000000000000000008152600401610d7c91906139d7565b60405180910390fd5b600360008373ffffffffffffffffffffffffffffffffffffffff1673ffffffffffffffffffffffffffffffffffffffff168152602001908152602001600020549050919050565b606080600060606000600c86604051610de5919061441f565b908152602001604051809103902090508060000181600101826002015483600301838054610e1290614465565b80601f0160208091040260200160405190810160405280929190818152602001828054610e3e90614465565b8015610e8b5780601f10610e6057610100808354040283529160200191610e8b565b820191906000526020600020905b815481529060010190602001808311610e6e57829003601f168201915b50505050509350828054610e9e90614465565b80601f0160208091040260200160405190810160405280929190818152602001828054610eca90614465565b8015610f175780601f10610eec57610100808354040283529160200191610f17565b820191906000526020600020905b815481529060010190602001808311610efa57829003601f168201915b5050505050925080805480602002602001604051908101604052809291908181526020016000905b82821015610feb578382906000526020600020018054610f5e90614465565b80601f0160208091040260200160405190810160405280929190818152602001828054610f8a90614465565b8015610fd75780601f10610fac57610100808354040283529160200191610fd7565b820191906000526020600020905b815481529060010190602001808311610fba57829003601f168201915b505050505081526020019060010190610f3f565b5050505090509450945094509450509193509193565b6000600a600084815260200190815260200160002060000160008373ffffffffffffffffffffffffffffffffffffffff1673ffffffffffffffffffffffffffffffffffffffff16815260200190815260200160002060009054906101000a900460ff16905092915050565b60606001805461107b90614465565b80601f01602080910402602001604051908101604052809291908181526020018280546110a790614465565b80156110f45780601f106110c9576101008083540402835291602001916110f4565b820191906000526020600020905b8154815290600101906020018083116110d757829003601f168201915b5050505050905090565b6000801b81565b611117611110611be2565b8383611efe565b5050565b600b60009054906101000a900473ffffffffffffffffffffffffffffffffffffffff1673ffffffffffffffffffffffffffffffffffffffff1663a97e5c93336040518263ffffffff1660e01b815260040161117691906139d7565b602060405180830381865afa158015611193573d6000803e3d6000fd5b505050506040513d601f19601f820116820180604052508101906111b791906147ae565b6111f6576040517f08c379a00000000000000000000000000000000000000000000000000000000081526004016111ed90614a23565b60405180910390fd5b600061120186610b71565b90506000600f88604051611215919061441f565b9081526020016040518091039020805461122e90614465565b80601f016020809104026020016040519081016040528092919081815260200182805461125a90614465565b80156112a75780601f1061127c576101008083540402835291602001916112a7565b820191906000526020600020905b81548152906001019060200180831161128a57829003601f168201915b505050505090506112b8818361206d565b6112f7576040517f08c379a00000000000000000000000000000000000000000000000000000000081526004016112ee90614a8f565b60405180910390fd5b6000428989336040516020016113109493929190614b18565b6040516020818303038152906040528051906020012060001c905080600e8a60405161133c919061441f565b908152602001604051809103902088604051611358919061441f565b9081526020016040518091039020819055507f92b7f8c86452b60d411d47333ca74e272d9eca1ea66b2294dd7eab894bf66f9f898989898989876040516113a59796959493929190614b62565b60405180910390a1505050505050505050565b6113c384848461084d565b6113cf848484846120c6565b50505050565b6000801b6113e281611996565b6113ef878787878761227d565b7f9ef476fe429562ad0651c005d3448dead56b6f21fd8cb232eb921cf8b231a4846000888888888760405161142996959493929190614c21565b60405180910390a150505050505050565b606061144582611b1d565b5060006114506124bb565b90506000815111611470576040518060200160405280600081525061149b565b8061147a846124d2565b60405160200161148b929190614c9e565b6040516020818303038152906040525b915050919050565b6114ac8261094f565b6114b581611996565b6114bf8383611e0b565b50505050565b6000600560008473ffffffffffffffffffffffffffffffffffffffff1673ffffffffffffffffffffffffffffffffffffffff16815260200190815260200160002060008373ffffffffffffffffffffffffffffffffffffffff1673ffffffffffffffffffffffffffffffffffffffff16815260200190815260200160002060009054906101000a900460ff16905092915050565b6060600060606000600d86604051611571919061441f565b90815260200160405180910390208560405161158d919061441f565b90815260200160405180910390209050806000018160010154826002018280546115b690614465565b80601f01602080910402602001604051908101604052809291908181526020018280546115e290614465565b801561162f5780601f106116045761010080835404028352916020019161162f565b820191906000526020600020905b81548152906001019060200180831161161257829003601f168201915b5050505050925080805461164290614465565b80601f016020809104026020016040519081016040528092919081815260200182805461166e90614465565b80156116bb5780601f10611690576101008083540402835291602001916116bb565b820191906000526020600020905b81548152906001019060200180831161169e57829003601f168201915b50505050509050935093509350509250925092565b600b60009054906101000a900473ffffffffffffffffffffffffffffffffffffffff1673ffffffffffffffffffffffffffffffffffffffff1663a97e5c93336040518263ffffffff1660e01b815260040161172b91906139d7565b602060405180830381865afa158015611748573d6000803e3d6000fd5b505050506040513d601f19601f8201168201806040525081019061176c91906147ae565b6117ab576040517f08c379a00000000000000000000000000000000000000000000000000000000081526004016117a290614d0e565b60405180910390fd5b82600e896040516117bc919061441f565b9081526020016040518091039020876040516117d8919061441f565b90815260200160405180910390205414611827576040517f08c379a000000000000000000000000000000000000000000000000000000000815260040161181e90614d7a565b60405180910390fd5b600088888888888860405160200161184496959493929190614d9a565b60405160208183030381529060405280519060200120905060008160405160200161186f9190614e67565b6040516020818303038152906040528051906020012090503373ffffffffffffffffffffffffffffffffffffffff166118a882856125a0565b73ffffffffffffffffffffffffffffffffffffffff16146118fe576040517f08c379a00000000000000000000000000000000000000000000000000000000081526004016118f590614ed9565b60405180910390fd5b61190b8a8a8a8a8a61227d565b7f9ef476fe429562ad0651c005d3448dead56b6f21fd8cb232eb921cf8b231a484858b8b8b8b8960405161194496959493929190614ef9565b60405180910390a1600e8a60405161195c919061441f565b908152602001604051809103902088604051611978919061441f565b90815260200160405180910390206000905550505050505050505050565b6119a7816119a2611be2565b6125c1565b50565b600073ffffffffffffffffffffffffffffffffffffffff168273ffffffffffffffffffffffffffffffffffffffff1603611a1c5760006040517f64a0ae92000000000000000000000000000000000000000000000000000000008152600401611a1391906139d7565b60405180910390fd5b6000611a2a83836000611bfc565b9050600073ffffffffffffffffffffffffffffffffffffffff168173ffffffffffffffffffffffffffffffffffffffff1614611a9e5760006040517f73c6ac6e000000000000000000000000000000000000000000000000000000008152600401611a9591906139d7565b60405180910390fd5b505050565b60007f7965db0b000000000000000000000000000000000000000000000000000000007bffffffffffffffffffffffffffffffffffffffffffffffffffffffff1916827bffffffffffffffffffffffffffffffffffffffffffffffffffffffff19161480611b165750611b1582612612565b5b9050919050565b600080611b298361268c565b9050600073ffffffffffffffffffffffffffffffffffffffff168173ffffffffffffffffffffffffffffffffffffffff1603611b9c57826040517f7e273289000000000000000000000000000000000000000000000000000000008152600401611b939190613a6d565b60405180910390fd5b80915050919050565b60006004600083815260200190815260200160002060009054906101000a900473ffffffffffffffffffffffffffffffffffffffff169050919050565b600033905090565b611bf783838360016126c9565b505050565b600080611c0a85858561288e565b9050600073ffffffffffffffffffffffffffffffffffffffff168173ffffffffffffffffffffffffffffffffffffffff1603611c4e57611c4984612aa8565b611c8d565b8473ffffffffffffffffffffffffffffffffffffffff168173ffffffffffffffffffffffffffffffffffffffff1614611c8c57611c8b8185612af1565b5b5b600073ffffffffffffffffffffffffffffffffffffffff168573ffffffffffffffffffffffffffffffffffffffff1603611ccf57611cca84612c52565b611d0e565b8473ffffffffffffffffffffffffffffffffffffffff168173ffffffffffffffffffffffffffffffffffffffff1614611d0d57611d0c8585612d23565b5b5b809150509392505050565b6000611d258383611001565b611e00576001600a600085815260200190815260200160002060000160008473ffffffffffffffffffffffffffffffffffffffff1673ffffffffffffffffffffffffffffffffffffffff16815260200190815260200160002060006101000a81548160ff021916908315150217905550611d9d611be2565b73ffffffffffffffffffffffffffffffffffffffff168273ffffffffffffffffffffffffffffffffffffffff16847f2f8788117e7eff1d82e926ec794901d17c78024a50270940304540a733656f0d60405160405180910390a460019050611e05565b600090505b92915050565b6000611e178383611001565b15611ef3576000600a600085815260200190815260200160002060000160008473ffffffffffffffffffffffffffffffffffffffff1673ffffffffffffffffffffffffffffffffffffffff16815260200190815260200160002060006101000a81548160ff021916908315150217905550611e90611be2565b73ffffffffffffffffffffffffffffffffffffffff168273ffffffffffffffffffffffffffffffffffffffff16847ff6391f5c32d9c69d2a47ea670b442974b53935d1edc7fd64eb21e047a839171b60405160405180910390a460019050611ef8565b600090505b92915050565b600073ffffffffffffffffffffffffffffffffffffffff168273ffffffffffffffffffffffffffffffffffffffff1603611f6f57816040517f5b08ba18000000000000000000000000000000000000000000000000000000008152600401611f6691906139d7565b60405180910390fd5b80600560008573ffffffffffffffffffffffffffffffffffffffff1673ffffffffffffffffffffffffffffffffffffffff16815260200190815260200160002060008473ffffffffffffffffffffffffffffffffffffffff1673ffffffffffffffffffffffffffffffffffffffff16815260200190815260200160002060006101000a81548160ff0219169083151502179055508173ffffffffffffffffffffffffffffffffffffffff168373ffffffffffffffffffffffffffffffffffffffff167f17307eab39ab6107e8899845ad3d59bd9653f200f220920489ca2b5937696c318360405161206091906138ad565b60405180910390a3505050565b600081604051602001612080919061441f565b60405160208183030381529060405280519060200120836040516020016120a7919061441f565b6040516020818303038152906040528051906020012014905092915050565b60008373ffffffffffffffffffffffffffffffffffffffff163b1115612277578273ffffffffffffffffffffffffffffffffffffffff1663150b7a0261210a611be2565b8685856040518563ffffffff1660e01b815260040161212c9493929190614fcb565b6020604051808303816000875af192505050801561216857506040513d601f19601f82011682018060405250810190612165919061502c565b60015b6121ec573d8060008114612198576040519150601f19603f3d011682016040523d82523d6000602084013e61219d565b606091505b5060008151036121e457836040517f64a0ae920000000000000000000000000000000000000000000000000000000081526004016121db91906139d7565b60405180910390fd5b805181602001fd5b63150b7a0260e01b7bffffffffffffffffffffffffffffffffffffffffffffffffffffffff1916817bffffffffffffffffffffffffffffffffffffffffffffffffffffffff19161461227557836040517f64a0ae9200000000000000000000000000000000000000000000000000000000815260040161226c91906139d7565b60405180910390fd5b505b50505050565b600085604051602001612290919061441f565b6040516020818303038152906040528051906020012060001c9050600073ffffffffffffffffffffffffffffffffffffffff166122cc8261268c565b73ffffffffffffffffffffffffffffffffffffffff1603612322576040517f08c379a0000000000000000000000000000000000000000000000000000000008152600401612319906150a5565b60405180910390fd5b6000600c87604051612334919061441f565b90815260200160405180910390209050604051806060016040528087815260200185815260200184815250600d8860405161236f919061441f565b90815260200160405180910390208660405161238b919061441f565b908152602001604051809103902060008201518160000190816123ae9190614638565b506020820151816001015560408201518160020190816123ce9190614638565b509050506000805b826003018054905081101561247357866040516020016123f6919061441f565b604051602081830303815290604052805190602001208360030182815481106124225761242161476a565b5b9060005260206000200160405160200161243c9190615148565b60405160208183030381529060405280519060200120036124605760019150612473565b808061246b9061518e565b9150506123d6565b50806124b15781600301869080600181540180825580915050600190039060005260206000200160009091909190915090816124af9190614638565b505b5050505050505050565b606060405180602001604052806000815250905090565b6060600060016124e184612dae565b01905060008167ffffffffffffffff811115612500576124ff6135f1565b5b6040519080825280601f01601f1916602001820160405280156125325781602001600182028036833780820191505090505b509050600082602001820190505b600115612595578080600190039150507f3031323334353637383961626364656600000000000000000000000000000000600a86061a8153600a8581612589576125886151d6565b5b04945060008503612540575b819350505050919050565b6000806125ac84612f01565b90506125b88184612f37565b91505092915050565b6125cb8282611001565b61260e5780826040517fe2517d3f000000000000000000000000000000000000000000000000000000008152600401612605929190615205565b60405180910390fd5b5050565b60007f780e9d63000000000000000000000000000000000000000000000000000000007bffffffffffffffffffffffffffffffffffffffffffffffffffffffff1916827bffffffffffffffffffffffffffffffffffffffffffffffffffffffff19161480612685575061268482612f63565b5b9050919050565b60006002600083815260200190815260200160002060009054906101000a900473ffffffffffffffffffffffffffffffffffffffff169050919050565b80806127025750600073ffffffffffffffffffffffffffffffffffffffff168273ffffffffffffffffffffffffffffffffffffffff1614155b1561283657600061271284611b1d565b9050600073ffffffffffffffffffffffffffffffffffffffff168373ffffffffffffffffffffffffffffffffffffffff161415801561277d57508273ffffffffffffffffffffffffffffffffffffffff168173ffffffffffffffffffffffffffffffffffffffff1614155b8015612790575061278e81846114c5565b155b156127d257826040517fa9fbf51f0000000000000000000000000000000000000000000000000000000081526004016127c991906139d7565b60405180910390fd5b811561283457838573ffffffffffffffffffffffffffffffffffffffff168273ffffffffffffffffffffffffffffffffffffffff167f8c5be1e5ebec7d5bd14f71427d1e84f3dd0314c0f7b2291e5b200ac8c7c3b92560405160405180910390a45b505b836004600085815260200190815260200160002060006101000a81548173ffffffffffffffffffffffffffffffffffffffff021916908373ffffffffffffffffffffffffffffffffffffffff16021790555050505050565b60008061289a8461268c565b9050600073ffffffffffffffffffffffffffffffffffffffff168373ffffffffffffffffffffffffffffffffffffffff16146128dc576128db818486613045565b5b600073ffffffffffffffffffffffffffffffffffffffff168173ffffffffffffffffffffffffffffffffffffffff161461296d5761291e6000856000806126c9565b6001600360008373ffffffffffffffffffffffffffffffffffffffff1673ffffffffffffffffffffffffffffffffffffffff168152602001908152602001600020600082825403925050819055505b600073ffffffffffffffffffffffffffffffffffffffff168573ffffffffffffffffffffffffffffffffffffffff16146129f0576001600360008773ffffffffffffffffffffffffffffffffffffffff1673ffffffffffffffffffffffffffffffffffffffff168152602001908152602001600020600082825401925050819055505b846002600086815260200190815260200160002060006101000a81548173ffffffffffffffffffffffffffffffffffffffff021916908373ffffffffffffffffffffffffffffffffffffffff160217905550838573ffffffffffffffffffffffffffffffffffffffff168273ffffffffffffffffffffffffffffffffffffffff167fddf252ad1be2c89b69c2b068fc378daa952ba7f163c4a11628f55a4df523b3ef60405160405180910390a4809150509392505050565b6008805490506009600083815260200190815260200160002081905550600881908060018154018082558091505060019003906000526020600020016000909190919091505550565b6000612afc83610d12565b9050600060076000848152602001908152602001600020549050818114612be1576000600660008673ffffffffffffffffffffffffffffffffffffffff1673ffffffffffffffffffffffffffffffffffffffff168152602001908152602001600020600084815260200190815260200160002054905080600660008773ffffffffffffffffffffffffffffffffffffffff1673ffffffffffffffffffffffffffffffffffffffff168152602001908152602001600020600084815260200190815260200160002081905550816007600083815260200190815260200160002081905550505b6007600084815260200190815260200160002060009055600660008573ffffffffffffffffffffffffffffffffffffffff1673ffffffffffffffffffffffffffffffffffffffff16815260200190815260200160002060008381526020019081526020016000206000905550505050565b60006001600880549050612c66919061522e565b9050600060096000848152602001908152602001600020549050600060088381548110612c9657612c9561476a565b5b906000526020600020015490508060088381548110612cb857612cb761476a565b5b906000526020600020018190555081600960008381526020019081526020016000208190555060096000858152602001908152602001600020600090556008805480612d0757612d06615262565b5b6001900381819060005260206000200160009055905550505050565b60006001612d3084610d12565b612d3a919061522e565b905081600660008573ffffffffffffffffffffffffffffffffffffffff1673ffffffffffffffffffffffffffffffffffffffff168152602001908152602001600020600083815260200190815260200160002081905550806007600084815260200190815260200160002081905550505050565b600080600090507a184f03e93ff9f4daa797ed6e38ed64bf6a1f0100000000000000008310612e0c577a184f03e93ff9f4daa797ed6e38ed64bf6a1f0100000000000000008381612e0257612e016151d6565b5b0492506040810190505b6d04ee2d6d415b85acef81000000008310612e49576d04ee2d6d415b85acef81000000008381612e3f57612e3e6151d6565b5b0492506020810190505b662386f26fc100008310612e7857662386f26fc100008381612e6e57612e6d6151d6565b5b0492506010810190505b6305f5e1008310612ea1576305f5e1008381612e9757612e966151d6565b5b0492506008810190505b6127108310612ec6576127108381612ebc57612ebb6151d6565b5b0492506004810190505b60648310612ee95760648381612edf57612ede6151d6565b5b0492506002810190505b600a8310612ef8576001810190505b80915050919050565b60007f19457468657265756d205369676e6564204d6573736167653a0a33320000000060005281601c52603c6000209050919050565b600080600080612f478686613109565b925092509250612f578282613165565b82935050505092915050565b60007f80ac58cd000000000000000000000000000000000000000000000000000000007bffffffffffffffffffffffffffffffffffffffffffffffffffffffff1916827bffffffffffffffffffffffffffffffffffffffffffffffffffffffff1916148061302e57507f5b5e139f000000000000000000000000000000000000000000000000000000007bffffffffffffffffffffffffffffffffffffffffffffffffffffffff1916827bffffffffffffffffffffffffffffffffffffffffffffffffffffffff1916145b8061303e575061303d826132c9565b5b9050919050565b613050838383613333565b61310457600073ffffffffffffffffffffffffffffffffffffffff168373ffffffffffffffffffffffffffffffffffffffff16036130c557806040517f7e2732890000000000000000000000000000000000000000000000000000000081526004016130bc9190613a6d565b60405180910390fd5b81816040517f177e802f0000000000000000000000000000000000000000000000000000000081526004016130fb929190614741565b60405180910390fd5b505050565b6000806000604184510361314e5760008060006020870151925060408701519150606087015160001a9050613140888285856133f4565b95509550955050505061315e565b60006002855160001b9250925092505b9250925092565b6000600381111561317957613178615291565b5b82600381111561318c5761318b615291565b5b03156132c557600160038111156131a6576131a5615291565b5b8260038111156131b9576131b8615291565b5b036131f0576040517ff645eedf00000000000000000000000000000000000000000000000000000000815260040160405180910390fd5b6002600381111561320457613203615291565b5b82600381111561321757613216615291565b5b0361325c578060001c6040517ffce698f70000000000000000000000000000000000000000000000000000000081526004016132539190613a6d565b60405180910390fd5b60038081111561326f5761326e615291565b5b82600381111561328257613281615291565b5b036132c457806040517fd78bce0c0000000000000000000000000000000000000000000000000000000081526004016132bb9190613b4d565b60405180910390fd5b5b5050565b60007f01ffc9a7000000000000000000000000000000000000000000000000000000007bffffffffffffffffffffffffffffffffffffffffffffffffffffffff1916827bffffffffffffffffffffffffffffffffffffffffffffffffffffffff1916149050919050565b60008073ffffffffffffffffffffffffffffffffffffffff168373ffffffffffffffffffffffffffffffffffffffff16141580156133eb57508273ffffffffffffffffffffffffffffffffffffffff168473ffffffffffffffffffffffffffffffffffffffff1614806133ac57506133ab84846114c5565b5b806133ea57508273ffffffffffffffffffffffffffffffffffffffff166133d283611ba5565b73ffffffffffffffffffffffffffffffffffffffff16145b5b90509392505050565b60008060007f7fffffffffffffffffffffffffffffff5d576e7357a4501ddfe92f46681b20a08460001c11156134345760006003859250925092506134de565b60006001888888886040516000815260200160405260405161345994939291906152dc565b6020604051602081039080840390855afa15801561347b573d6000803e3d6000fd5b505050602060405103519050600073ffffffffffffffffffffffffffffffffffffffff168173ffffffffffffffffffffffffffffffffffffffff16036134cf57600060016000801b935093509350506134de565b8060008060001b935093509350505b9450945094915050565b828054828255906000526020600020908101928215613530579160200282015b8281111561352f57825182908161351f9190614638565b5091602001919060010190613508565b5b50905061353d9190613541565b5090565b5b8082111561356157600081816135589190613565565b50600101613542565b5090565b50805461357190614465565b6000825580601f1061358357506135a2565b601f0160209004906000526020600020908101906135a191906135a5565b5b50565b5b808211156135be5760008160009055506001016135a6565b5090565b6000604051905090565b600080fd5b600080fd5b600080fd5b600080fd5b6000601f19601f8301169050919050565b7f4e487b7100000000000000000000000000000000000000000000000000000000600052604160045260246000fd5b613629826135e0565b810181811067ffffffffffffffff82111715613648576136476135f1565b5b80604052505050565b600061365b6135c2565b90506136678282613620565b919050565b600067ffffffffffffffff821115613687576136866135f1565b5b613690826135e0565b9050602081019050919050565b82818337600083830152505050565b60006136bf6136ba8461366c565b613651565b9050828152602081018484840111156136db576136da6135db565b5b6136e684828561369d565b509392505050565b600082601f830112613703576137026135d6565b5b81356137138482602086016136ac565b91505092915050565b6000819050919050565b61372f8161371c565b811461373a57600080fd5b50565b60008135905061374c81613726565b92915050565b6000806000806080858703121561376c5761376b6135cc565b5b600085013567ffffffffffffffff81111561378a576137896135d1565b5b613796878288016136ee565b945050602085013567ffffffffffffffff8111156137b7576137b66135d1565b5b6137c3878288016136ee565b93505060406137d48782880161373d565b925050606085013567ffffffffffffffff8111156137f5576137f46135d1565b5b613801878288016136ee565b91505092959194509250565b60007fffffffff0000000000000000000000000000000000000000000000000000000082169050919050565b6138428161380d565b811461384d57600080fd5b50565b60008135905061385f81613839565b92915050565b60006020828403121561387b5761387a6135cc565b5b600061388984828501613850565b91505092915050565b60008115159050919050565b6138a781613892565b82525050565b60006020820190506138c2600083018461389e565b92915050565b600081519050919050565b600082825260208201905092915050565b60005b838110156139025780820151818401526020810190506138e7565b60008484015250505050565b6000613919826138c8565b61392381856138d3565b93506139338185602086016138e4565b61393c816135e0565b840191505092915050565b60006020820190508181036000830152613961818461390e565b905092915050565b60006020828403121561397f5761397e6135cc565b5b600061398d8482850161373d565b91505092915050565b600073ffffffffffffffffffffffffffffffffffffffff82169050919050565b60006139c182613996565b9050919050565b6139d1816139b6565b82525050565b60006020820190506139ec60008301846139c8565b92915050565b6139fb816139b6565b8114613a0657600080fd5b50565b600081359050613a18816139f2565b92915050565b60008060408385031215613a3557613a346135cc565b5b6000613a4385828601613a09565b9250506020613a548582860161373d565b9150509250929050565b613a678161371c565b82525050565b6000602082019050613a826000830184613a5e565b92915050565b600080600060608486031215613aa157613aa06135cc565b5b6000613aaf86828701613a09565b9350506020613ac086828701613a09565b9250506040613ad18682870161373d565b9150509250925092565b6000819050919050565b613aee81613adb565b8114613af957600080fd5b50565b600081359050613b0b81613ae5565b92915050565b600060208284031215613b2757613b266135cc565b5b6000613b3584828501613afc565b91505092915050565b613b4781613adb565b82525050565b6000602082019050613b626000830184613b3e565b92915050565b60008060408385031215613b7f57613b7e6135cc565b5b6000613b8d85828601613afc565b9250506020613b9e85828601613a09565b9150509250929050565b6000819050919050565b6000613bcd613bc8613bc384613996565b613ba8565b613996565b9050919050565b6000613bdf82613bb2565b9050919050565b6000613bf182613bd4565b9050919050565b613c0181613be6565b82525050565b6000602082019050613c1c6000830184613bf8565b92915050565b600060208284031215613c3857613c376135cc565b5b6000613c4684828501613a09565b91505092915050565b600060208284031215613c6557613c646135cc565b5b600082013567ffffffffffffffff811115613c8357613c826135d1565b5b613c8f848285016136ee565b91505092915050565b600081519050919050565b600082825260208201905092915050565b6000819050602082019050919050565b600082825260208201905092915050565b6000613ce0826138c8565b613cea8185613cc4565b9350613cfa8185602086016138e4565b613d03816135e0565b840191505092915050565b6000613d1a8383613cd5565b905092915050565b6000602082019050919050565b6000613d3a82613c98565b613d448185613ca3565b935083602082028501613d5685613cb4565b8060005b85811015613d925784840389528151613d738582613d0e565b9450613d7e83613d22565b925060208a01995050600181019050613d5a565b50829750879550505050505092915050565b60006080820190508181036000830152613dbe818761390e565b90508181036020830152613dd2818661390e565b9050613de16040830185613a5e565b8181036060830152613df38184613d2f565b905095945050505050565b613e0781613892565b8114613e1257600080fd5b50565b600081359050613e2481613dfe565b92915050565b60008060408385031215613e4157613e406135cc565b5b6000613e4f85828601613a09565b9250506020613e6085828601613e15565b9150509250929050565b60008060008060008060c08789031215613e8757613e866135cc565b5b600087013567ffffffffffffffff811115613ea557613ea46135d1565b5b613eb189828a016136ee565b9650506020613ec289828a01613a09565b955050604087013567ffffffffffffffff811115613ee357613ee26135d1565b5b613eef89828a016136ee565b945050606087013567ffffffffffffffff811115613f1057613f0f6135d1565b5b613f1c89828a016136ee565b9350506080613f2d89828a0161373d565b92505060a0613f3e89828a0161373d565b9150509295509295509295565b600067ffffffffffffffff821115613f6657613f656135f1565b5b613f6f826135e0565b9050602081019050919050565b6000613f8f613f8a84613f4b565b613651565b905082815260208101848484011115613fab57613faa6135db565b5b613fb684828561369d565b509392505050565b600082601f830112613fd357613fd26135d6565b5b8135613fe3848260208601613f7c565b91505092915050565b60008060008060808587031215614006576140056135cc565b5b600061401487828801613a09565b945050602061402587828801613a09565b93505060406140368782880161373d565b925050606085013567ffffffffffffffff811115614057576140566135d1565b5b61406387828801613fbe565b91505092959194509250565b60008060008060008060c0878903121561408c5761408b6135cc565b5b600087013567ffffffffffffffff8111156140aa576140a96135d1565b5b6140b689828a016136ee565b965050602087013567ffffffffffffffff8111156140d7576140d66135d1565b5b6140e389828a016136ee565b955050604087013567ffffffffffffffff811115614104576141036135d1565b5b61411089828a016136ee565b945050606061412189828a0161373d565b935050608087013567ffffffffffffffff811115614142576141416135d1565b5b61414e89828a016136ee565b92505060a087013567ffffffffffffffff81111561416f5761416e6135d1565b5b61417b89828a016136ee565b9150509295509295509295565b6000806040838503121561419f5761419e6135cc565b5b60006141ad85828601613a09565b92505060206141be85828601613a09565b9150509250929050565b600080604083850312156141df576141de6135cc565b5b600083013567ffffffffffffffff8111156141fd576141fc6135d1565b5b614209858286016136ee565b925050602083013567ffffffffffffffff81111561422a576142296135d1565b5b614236858286016136ee565b9150509250929050565b6000606082019050818103600083015261425a818661390e565b90506142696020830185613a5e565b818103604083015261427b818461390e565b9050949350505050565b600080600080600080600080610100898b0312156142a6576142a56135cc565b5b600089013567ffffffffffffffff8111156142c4576142c36135d1565b5b6142d08b828c016136ee565b985050602089013567ffffffffffffffff8111156142f1576142f06135d1565b5b6142fd8b828c016136ee565b975050604089013567ffffffffffffffff81111561431e5761431d6135d1565b5b61432a8b828c016136ee565b965050606061433b8b828c0161373d565b955050608089013567ffffffffffffffff81111561435c5761435b6135d1565b5b6143688b828c016136ee565b94505060a06143798b828c0161373d565b93505060c089013567ffffffffffffffff81111561439a576143996135d1565b5b6143a68b828c016136ee565b92505060e089013567ffffffffffffffff8111156143c7576143c66135d1565b5b6143d38b828c01613fbe565b9150509295985092959890939650565b600081905092915050565b60006143f9826138c8565b61440381856143e3565b93506144138185602086016138e4565b80840191505092915050565b600061442b82846143ee565b915081905092915050565b7f4e487b7100000000000000000000000000000000000000000000000000000000600052602260045260246000fd5b6000600282049050600182168061447d57607f821691505b6020821081036144905761448f614436565b5b50919050565b60008190508160005260206000209050919050565b60006020601f8301049050919050565b600082821b905092915050565b6000600883026144f87fffffffffffffffffffffffffffffffffffffffffffffffffffffffffffffffff826144bb565b61450286836144bb565b95508019841693508086168417925050509392505050565b600061453561453061452b8461371c565b613ba8565b61371c565b9050919050565b6000819050919050565b61454f8361451a565b61456361455b8261453c565b8484546144c8565b825550505050565b600090565b61457861456b565b614583818484614546565b505050565b5b818110156145a75761459c600082614570565b600181019050614589565b5050565b601f8211156145ec576145bd81614496565b6145c6846144ab565b810160208510156145d5578190505b6145e96145e1856144ab565b830182614588565b50505b505050565b600082821c905092915050565b600061460f600019846008026145f1565b1980831691505092915050565b600061462883836145fe565b9150826002028217905092915050565b614641826138c8565b67ffffffffffffffff81111561465a576146596135f1565b5b6146648254614465565b61466f8282856145ab565b600060209050601f8311600181146146a25760008415614690578287015190505b61469a858261461c565b865550614702565b601f1984166146b086614496565b60005b828110156146d8578489015182556001820191506020850194506020810190506146b3565b868310156146f557848901516146f1601f8916826145fe565b8355505b6001600288020188555050505b505050505050565b600060608201905061471f60008301866139c8565b61472c6020830185613a5e565b61473960408301846139c8565b949350505050565b600060408201905061475660008301856139c8565b6147636020830184613a5e565b9392505050565b7f4e487b7100000000000000000000000000000000000000000000000000000000600052603260045260246000fd5b6000815190506147a881613dfe565b92915050565b6000602082840312156147c4576147c36135cc565b5b60006147d284828501614799565b91505092915050565b7f41646472657373206973206e6f7420612072656769737465726564206f72616360008201527f6c65000000000000000000000000000000000000000000000000000000000000602082015250565b60006148376022836138d3565b9150614842826147db565b604082019050919050565b600060208201905081810360008301526148668161482a565b9050919050565b600080fd5b600080fd5b600081519050614886816139f2565b92915050565b600061489f61489a8461366c565b613651565b9050828152602081018484840111156148bb576148ba6135db565b5b6148c68482856138e4565b509392505050565b600082601f8301126148e3576148e26135d6565b5b81516148f384826020860161488c565b91505092915050565b6000604082840312156149125761491161486d565b5b61491c6040613651565b9050600061492c84828501614877565b600083015250602082015167ffffffffffffffff8111156149505761494f614872565b5b61495c848285016148ce565b60208301525092915050565b60006020828403121561497e5761497d6135cc565b5b600082015167ffffffffffffffff81111561499c5761499b6135d1565b5b6149a8848285016148fc565b91505092915050565b7f4f6e6c79206f7261636c65732063616e2073746172742061207468652050726560008201527f7175616c696669636174696f6e00000000000000000000000000000000000000602082015250565b6000614a0d602d836138d3565b9150614a18826149b1565b604082019050919050565b60006020820190508181036000830152614a3c81614a00565b9050919050565b7f4449447320646f206e6f74206d61746368000000000000000000000000000000600082015250565b6000614a796011836138d3565b9150614a8482614a43565b602082019050919050565b60006020820190508181036000830152614aa881614a6c565b9050919050565b6000819050919050565b614aca614ac58261371c565b614aaf565b82525050565b60008160601b9050919050565b6000614ae882614ad0565b9050919050565b6000614afa82614add565b9050919050565b614b12614b0d826139b6565b614aef565b82525050565b6000614b248287614ab9565b602082019150614b3482866143ee565b9150614b408285614b01565b601482019150614b508284614b01565b60148201915081905095945050505050565b600060e0820190508181036000830152614b7c818a61390e565b9050614b8b60208301896139c8565b8181036040830152614b9d818861390e565b90508181036060830152614bb1818761390e565b9050614bc06080830186613a5e565b614bcd60a0830185613a5e565b614bda60c0830184613a5e565b98975050505050505050565b6000819050919050565b6000614c0b614c06614c0184614be6565b613ba8565b61371c565b9050919050565b614c1b81614bf0565b82525050565b600060c082019050614c366000830189614c12565b8181036020830152614c48818861390e565b90508181036040830152614c5c818761390e565b90508181036060830152614c70818661390e565b9050614c7f6080830185613a5e565b81810360a0830152614c91818461390e565b9050979650505050505050565b6000614caa82856143ee565b9150614cb682846143ee565b91508190509392505050565b7f556e617574686f72697a6564206f7261636c6500000000000000000000000000600082015250565b6000614cf86013836138d3565b9150614d0382614cc2565b602082019050919050565b60006020820190508181036000830152614d2781614ceb565b9050919050565b7f496e76616c69642070726f63657373206e756d62657200000000000000000000600082015250565b6000614d646016836138d3565b9150614d6f82614d2e565b602082019050919050565b60006020820190508181036000830152614d9381614d57565b9050919050565b6000614da682896143ee565b9150614db282886143ee565b9150614dbe82876143ee565b9150614dca8286614ab9565b602082019150614dda82856143ee565b9150614de68284614ab9565b602082019150819050979650505050505050565b7f19457468657265756d205369676e6564204d6573736167653a0a333200000000600082015250565b6000614e30601c836143e3565b9150614e3b82614dfa565b601c82019050919050565b6000819050919050565b614e61614e5c82613adb565b614e46565b82525050565b6000614e7282614e23565b9150614e7e8284614e50565b60208201915081905092915050565b7f496e76616c6964207369676e6174757265000000000000000000000000000000600082015250565b6000614ec36011836138d3565b9150614ece82614e8d565b602082019050919050565b60006020820190508181036000830152614ef281614eb6565b9050919050565b600060c082019050614f0e6000830189613a5e565b8181036020830152614f20818861390e565b90508181036040830152614f34818761390e565b90508181036060830152614f48818661390e565b9050614f576080830185613a5e565b81810360a0830152614f69818461390e565b9050979650505050505050565b600081519050919050565b600082825260208201905092915050565b6000614f9d82614f76565b614fa78185614f81565b9350614fb78185602086016138e4565b614fc0816135e0565b840191505092915050565b6000608082019050614fe060008301876139c8565b614fed60208301866139c8565b614ffa6040830185613a5e565b818103606083015261500c8184614f92565b905095945050505050565b60008151905061502681613839565b92915050565b600060208284031215615042576150416135cc565b5b600061505084828501615017565b91505092915050565b7f546f6b656e20646f6573206e6f74206578697374000000000000000000000000600082015250565b600061508f6014836138d3565b915061509a82615059565b602082019050919050565b600060208201905081810360008301526150be81615082565b9050919050565b600081546150d281614465565b6150dc81866143e3565b945060018216600081146150f7576001811461510c5761513f565b60ff198316865281151582028601935061513f565b61511585614496565b60005b8381101561513757815481890152600182019150602081019050615118565b838801955050505b50505092915050565b600061515482846150c5565b915081905092915050565b7f4e487b7100000000000000000000000000000000000000000000000000000000600052601160045260246000fd5b60006151998261371c565b91507fffffffffffffffffffffffffffffffffffffffffffffffffffffffffffffffff82036151cb576151ca61515f565b5b600182019050919050565b7f4e487b7100000000000000000000000000000000000000000000000000000000600052601260045260246000fd5b600060408201905061521a60008301856139c8565b6152276020830184613b3e565b9392505050565b60006152398261371c565b91506152448361371c565b925082820390508181111561525c5761525b61515f565b5b92915050565b7f4e487b7100000000000000000000000000000000000000000000000000000000600052603160045260246000fd5b7f4e487b7100000000000000000000000000000000000000000000000000000000600052602160045260246000fd5b600060ff82169050919050565b6152d6816152c0565b82525050565b60006080820190506152f16000830187613b3e565b6152fe60208301866152cd565b61530b6040830185613b3e565b6153186060830184613b3e565b9594505050505056fea26469706673582212202e7a234b3b297a1ee39b9f4d3a2d0518f33a0b80f80549404bf804f6416fb6e864736f6c63430008140033",
  "linkReferences": {},
  "deployedLinkReferences": {}
}