{
  "_format": "hh-sol-artifact-1",
  "contractName": "AssetDNFT",
  "sourceName": "contracts/asset-dNFT.sol",
  "abi": [
    {
      "inputs": [
        {
          "internalType": "address",
          "name": "oracleRegistryAddress",
          "type": "address"
        }
      ],
      "stateMutability": "nonpayable",
      "type": "constructor"
    },
    {
      "inputs": [],
      "name": "AccessControlBadConfirmation",
      "type": "error"
    },
    {
      "inputs": [
        {
          "internalType": "address",
          "name": "account",
          "type": "address"
        },
        {
          "internalType": "bytes32",
          "name": "neededRole",
          "type": "bytes32"
        }
      ],
      "name": "AccessControlUnauthorizedAccount",
      "type": "error"
    },
    {
      "inputs": [],
      "name": "ECDSAInvalidSignature",
      "type": "error"
    },
    {
      "inputs": [
        {
          "internalType": "uint256",
          "name": "length",
          "type": "uint256"
        }
      ],
      "name": "ECDSAInvalidSignatureLength",
      "type": "error"
    },
    {
      "inputs": [
        {
          "internalType": "bytes32",
          "name": "s",
          "type": "bytes32"
        }
      ],
      "name": "ECDSAInvalidSignatureS",
      "type": "error"
    },
    {
      "inputs": [],
      "name": "ERC721EnumerableForbiddenBatchMint",
      "type": "error"
    },
    {
      "inputs": [
        {
          "internalType": "address",
          "name": "sender",
          "type": "address"
        },
        {
          "internalType": "uint256",
          "name": "tokenId",
          "type": "uint256"
        },
        {
          "internalType": "address",
          "name": "owner",
          "type": "address"
        }
      ],
      "name": "ERC721IncorrectOwner",
      "type": "error"
    },
    {
      "inputs": [
        {
          "internalType": "address",
          "name": "operator",
          "type": "address"
        },
        {
          "internalType": "uint256",
          "name": "tokenId",
          "type": "uint256"
        }
      ],
      "name": "ERC721InsufficientApproval",
      "type": "error"
    },
    {
      "inputs": [
        {
          "internalType": "address",
          "name": "approver",
          "type": "address"
        }
      ],
      "name": "ERC721InvalidApprover",
      "type": "error"
    },
    {
      "inputs": [
        {
          "internalType": "address",
          "name": "operator",
          "type": "address"
        }
      ],
      "name": "ERC721InvalidOperator",
      "type": "error"
    },
    {
      "inputs": [
        {
          "internalType": "address",
          "name": "owner",
          "type": "address"
        }
      ],
      "name": "ERC721InvalidOwner",
      "type": "error"
    },
    {
      "inputs": [
        {
          "internalType": "address",
          "name": "receiver",
          "type": "address"
        }
      ],
      "name": "ERC721InvalidReceiver",
      "type": "error"
    },
    {
      "inputs": [
        {
          "internalType": "address",
          "name": "sender",
          "type": "address"
        }
      ],
      "name": "ERC721InvalidSender",
      "type": "error"
    },
    {
      "inputs": [
        {
          "internalType": "uint256",
          "name": "tokenId",
          "type": "uint256"
        }
      ],
      "name": "ERC721NonexistentToken",
      "type": "error"
    },
    {
      "inputs": [
        {
          "internalType": "address",
          "name": "owner",
          "type": "address"
        },
        {
          "internalType": "uint256",
          "name": "index",
          "type": "uint256"
        }
      ],
      "name": "ERC721OutOfBoundsIndex",
      "type": "error"
    },
    {
      "anonymous": false,
      "inputs": [
        {
          "indexed": true,
          "internalType": "address",
          "name": "owner",
          "type": "address"
        },
        {
          "indexed": true,
          "internalType": "address",
          "name": "approved",
          "type": "address"
        },
        {
          "indexed": true,
          "internalType": "uint256",
          "name": "tokenId",
          "type": "uint256"
        }
      ],
      "name": "Approval",
      "type": "event"
    },
    {
      "anonymous": false,
      "inputs": [
        {
          "indexed": true,
          "internalType": "address",
          "name": "owner",
          "type": "address"
        },
        {
          "indexed": true,
          "internalType": "address",
          "name": "operator",
          "type": "address"
        },
        {
          "indexed": false,
          "internalType": "bool",
          "name": "approved",
          "type": "bool"
        }
      ],
      "name": "ApprovalForAll",
      "type": "event"
    },
    {
      "anonymous": false,
      "inputs": [
        {
          "indexed": false,
          "internalType": "string",
          "name": "tokenId",
          "type": "string"
        },
        {
          "indexed": false,
          "internalType": "string",
          "name": "_type",
          "type": "string"
        },
        {
          "indexed": false,
          "internalType": "uint256",
          "name": "_power",
          "type": "uint256"
        },
        {
          "indexed": false,
          "internalType": "string",
          "name": "_ownerDID",
          "type": "string"
        }
      ],
      "name": "AssetDNFTMinted",
      "type": "event"
    },
    {
      "anonymous": false,
      "inputs": [
        {
          "indexed": false,
          "internalType": "uint256",
          "name": "processNumber",
          "type": "uint256"
        },
        {
          "indexed": false,
          "internalType": "string",
          "name": "tokenId",
          "type": "string"
        },
        {
          "indexed": false,
          "internalType": "string",
          "name": "timestamp",
          "type": "string"
        },
        {
          "indexed": false,
          "internalType": "string",
          "name": "preqType",
          "type": "string"
        },
        {
          "indexed": false,
          "internalType": "uint256",
          "name": "preqPower",
          "type": "uint256"
        },
        {
          "indexed": false,
          "internalType": "string",
          "name": "preqResult",
          "type": "string"
        }
      ],
      "name": "PrequalificationCompleted",
      "type": "event"
    },
    {
      "anonymous": false,
      "inputs": [
        {
          "indexed": false,
          "internalType": "string",
          "name": "tokenId",
          "type": "string"
        },
        {
          "indexed": false,
          "internalType": "address",
          "name": "oracleID",
          "type": "address"
        },
        {
          "indexed": false,
          "internalType": "string",
          "name": "preqType",
          "type": "string"
        },
        {
          "indexed": false,
          "internalType": "string",
          "name": "assetType",
          "type": "string"
        },
        {
          "indexed": false,
          "internalType": "uint256",
          "name": "preqPowerTarget",
          "type": "uint256"
        },
        {
          "indexed": false,
          "internalType": "uint256",
          "name": "preqPowerStart",
          "type": "uint256"
        },
        {
          "indexed": false,
          "internalType": "uint256",
          "name": "processNumber",
          "type": "uint256"
        }
      ],
      "name": "PrequalificationRequested",
      "type": "event"
    },
    {
      "anonymous": false,
      "inputs": [
        {
          "indexed": true,
          "internalType": "bytes32",
          "name": "role",
          "type": "bytes32"
        },
        {
          "indexed": true,
          "internalType": "bytes32",
          "name": "previousAdminRole",
          "type": "bytes32"
        },
        {
          "indexed": true,
          "internalType": "bytes32",
          "name": "newAdminRole",
          "type": "bytes32"
        }
      ],
      "name": "RoleAdminChanged",
      "type": "event"
    },
    {
      "anonymous": false,
      "inputs": [
        {
          "indexed": true,
          "internalType": "bytes32",
          "name": "role",
          "type": "bytes32"
        },
        {
          "indexed": true,
          "internalType": "address",
          "name": "account",
          "type": "address"
        },
        {
          "indexed": true,
          "internalType": "address",
          "name": "sender",
          "type": "address"
        }
      ],
      "name": "RoleGranted",
      "type": "event"
    },
    {
      "anonymous": false,
      "inputs": [
        {
          "indexed": true,
          "internalType": "bytes32",
          "name": "role",
          "type": "bytes32"
        },
        {
          "indexed": true,
          "internalType": "address",
          "name": "account",
          "type": "address"
        },
        {
          "indexed": true,
          "internalType": "address",
          "name": "sender",
          "type": "address"
        }
      ],
      "name": "RoleRevoked",
      "type": "event"
    },
    {
      "anonymous": false,
      "inputs": [
        {
          "indexed": true,
          "internalType": "address",
          "name": "from",
          "type": "address"
        },
        {
          "indexed": true,
          "internalType": "address",
          "name": "to",
          "type": "address"
        },
        {
          "indexed": true,
          "internalType": "uint256",
          "name": "tokenId",
          "type": "uint256"
        }
      ],
      "name": "Transfer",
      "type": "event"
    },
    {
      "inputs": [],
      "name": "DEFAULT_ADMIN_ROLE",
      "outputs": [
        {
          "internalType": "bytes32",
          "name": "",
          "type": "bytes32"
        }
      ],
      "stateMutability": "view",
      "type": "function"
    },
    {
      "inputs": [
        {
          "internalType": "string",
          "name": "tokenId",
          "type": "string"
        },
        {
          "internalType": "string",
          "name": "timestamp",
          "type": "string"
        },
        {
          "internalType": "string",
          "name": "preqType",
          "type": "string"
        },
        {
          "internalType": "uint256",
          "name": "preqPower",
          "type": "uint256"
        },
        {
          "internalType": "string",
          "name": "dataSetHash",
          "type": "string"
        },
        {
          "internalType": "string",
          "name": "preqResult",
          "type": "string"
        }
      ],
      "name": "addPrequalificationAdminSetup",
      "outputs": [],
      "stateMutability": "nonpayable",
      "type": "function"
    },
    {
      "inputs": [
        {
          "internalType": "address",
          "name": "to",
          "type": "address"
        },
        {
          "internalType": "uint256",
          "name": "tokenId",
          "type": "uint256"
        }
      ],
      "name": "approve",
      "outputs": [],
      "stateMutability": "nonpayable",
      "type": "function"
    },
    {
      "inputs": [
        {
          "internalType": "address",
          "name": "owner",
          "type": "address"
        }
      ],
      "name": "balanceOf",
      "outputs": [
        {
          "internalType": "uint256",
          "name": "",
          "type": "uint256"
        }
      ],
      "stateMutability": "view",
      "type": "function"
    },
    {
      "inputs": [
        {
          "internalType": "uint256",
          "name": "tokenId",
          "type": "uint256"
        }
      ],
      "name": "getApproved",
      "outputs": [
        {
          "internalType": "address",
          "name": "",
          "type": "address"
        }
      ],
      "stateMutability": "view",
      "type": "function"
    },
    {
      "inputs": [
        {
          "internalType": "string",
          "name": "tokenId",
          "type": "string"
        }
      ],
      "name": "getDetailedMetadata",
      "outputs": [
        {
          "internalType": "string",
          "name": "ownerDID",
          "type": "string"
        },
        {
          "internalType": "string",
          "name": "assetType",
          "type": "string"
        },
        {
          "internalType": "uint256",
          "name": "installedPower",
          "type": "uint256"
        },
        {
          "internalType": "string[]",
          "name": "preqTypes",
          "type": "string[]"
        }
      ],
      "stateMutability": "view",
      "type": "function"
    },
    {
      "inputs": [
        {
          "internalType": "string",
          "name": "tokenId",
          "type": "string"
        },
        {
          "internalType": "string",
          "name": "preqType",
          "type": "string"
        }
      ],
      "name": "getDetailedPrequalification",
      "outputs": [
        {
          "internalType": "string",
          "name": "Timestamp",
          "type": "string"
        },
        {
          "internalType": "uint256",
          "name": "preqPower",
          "type": "uint256"
        },
        {
          "internalType": "string",
          "name": "dataSetHash",
          "type": "string"
        }
      ],
      "stateMutability": "view",
      "type": "function"
    },
    {
      "inputs": [
        {
          "internalType": "address",
          "name": "oracleAddress",
          "type": "address"
        }
      ],
      "name": "getOracleDID",
      "outputs": [
        {
          "internalType": "string",
          "name": "",
          "type": "string"
        }
      ],
      "stateMutability": "view",
      "type": "function"
    },
    {
      "inputs": [
        {
          "internalType": "bytes32",
          "name": "role",
          "type": "bytes32"
        }
      ],
      "name": "getRoleAdmin",
      "outputs": [
        {
          "internalType": "bytes32",
          "name": "",
          "type": "bytes32"
        }
      ],
      "stateMutability": "view",
      "type": "function"
    },
    {
      "inputs": [
        {
          "internalType": "bytes32",
          "name": "role",
          "type": "bytes32"
        },
        {
          "internalType": "address",
          "name": "account",
          "type": "address"
        }
      ],
      "name": "grantRole",
      "outputs": [],
      "stateMutability": "nonpayable",
      "type": "function"
    },
    {
      "inputs": [
        {
          "internalType": "bytes32",
          "name": "role",
          "type": "bytes32"
        },
        {
          "internalType": "address",
          "name": "account",
          "type": "address"
        }
      ],
      "name": "hasRole",
      "outputs": [
        {
          "internalType": "bool",
          "name": "",
          "type": "bool"
        }
      ],
      "stateMutability": "view",
      "type": "function"
    },
    {
      "inputs": [
        {
          "internalType": "address",
          "name": "owner",
          "type": "address"
        },
        {
          "internalType": "address",
          "name": "operator",
          "type": "address"
        }
      ],
      "name": "isApprovedForAll",
      "outputs": [
        {
          "internalType": "bool",
          "name": "",
          "type": "bool"
        }
      ],
      "stateMutability": "view",
      "type": "function"
    },
    {
      "inputs": [
        {
          "internalType": "string",
          "name": "tokenId",
          "type": "string"
        },
        {
          "internalType": "string",
          "name": "_type",
          "type": "string"
        },
        {
          "internalType": "uint256",
          "name": "_power",
          "type": "uint256"
        },
        {
          "internalType": "string",
          "name": "_ownerDID",
          "type": "string"
        }
      ],
      "name": "mint",
      "outputs": [],
      "stateMutability": "nonpayable",
      "type": "function"
    },
    {
      "inputs": [],
      "name": "name",
      "outputs": [
        {
          "internalType": "string",
          "name": "",
          "type": "string"
        }
      ],
      "stateMutability": "view",
      "type": "function"
    },
    {
      "inputs": [],
      "name": "oracleManager",
      "outputs": [
        {
          "internalType": "contract OracleRegistry",
          "name": "",
          "type": "address"
        }
      ],
      "stateMutability": "view",
      "type": "function"
    },
    {
      "inputs": [
        {
          "internalType": "uint256",
          "name": "tokenId",
          "type": "uint256"
        }
      ],
      "name": "ownerOf",
      "outputs": [
        {
          "internalType": "address",
          "name": "",
          "type": "address"
        }
      ],
      "stateMutability": "view",
      "type": "function"
    },
    {
      "inputs": [
        {
          "internalType": "string",
          "name": "tokenId",
          "type": "string"
        },
        {
          "internalType": "string",
          "name": "timestamp",
          "type": "string"
        },
        {
          "internalType": "string",
          "name": "preqType",
          "type": "string"
        },
        {
          "internalType": "uint256",
          "name": "preqPower",
          "type": "uint256"
        },
        {
          "internalType": "string",
          "name": "dataSetHash",
          "type": "string"
        },
        {
          "internalType": "uint256",
          "name": "processNumber",
          "type": "uint256"
        },
        {
          "internalType": "string",
          "name": "preqResult",
          "type": "string"
        },
        {
          "internalType": "bytes",
          "name": "signature",
          "type": "bytes"
        }
      ],
      "name": "preQualificationOracleCallback",
      "outputs": [],
      "stateMutability": "nonpayable",
      "type": "function"
    },
    {
      "inputs": [
        {
          "internalType": "bytes32",
          "name": "role",
          "type": "bytes32"
        },
        {
          "internalType": "address",
          "name": "callerConfirmation",
          "type": "address"
        }
      ],
      "name": "renounceRole",
      "outputs": [],
      "stateMutability": "nonpayable",
      "type": "function"
    },
    {
      "inputs": [
        {
          "internalType": "bytes32",
          "name": "role",
          "type": "bytes32"
        },
        {
          "internalType": "address",
          "name": "account",
          "type": "address"
        }
      ],
      "name": "revokeRole",
      "outputs": [],
      "stateMutability": "nonpayable",
      "type": "function"
    },
    {
      "inputs": [
        {
          "internalType": "address",
          "name": "from",
          "type": "address"
        },
        {
          "internalType": "address",
          "name": "to",
          "type": "address"
        },
        {
          "internalType": "uint256",
          "name": "tokenId",
          "type": "uint256"
        }
      ],
      "name": "safeTransferFrom",
      "outputs": [],
      "stateMutability": "nonpayable",
      "type": "function"
    },
    {
      "inputs": [
        {
          "internalType": "address",
          "name": "from",
          "type": "address"
        },
        {
          "internalType": "address",
          "name": "to",
          "type": "address"
        },
        {
          "internalType": "uint256",
          "name": "tokenId",
          "type": "uint256"
        },
        {
          "internalType": "bytes",
          "name": "data",
          "type": "bytes"
        }
      ],
      "name": "safeTransferFrom",
      "outputs": [],
      "stateMutability": "nonpayable",
      "type": "function"
    },
    {
      "inputs": [
        {
          "internalType": "address",
          "name": "operator",
          "type": "address"
        },
        {
          "internalType": "bool",
          "name": "approved",
          "type": "bool"
        }
      ],
      "name": "setApprovalForAll",
      "outputs": [],
      "stateMutability": "nonpayable",
      "type": "function"
    },
    {
      "inputs": [
        {
          "internalType": "string",
          "name": "tokenId",
          "type": "string"
        },
        {
          "internalType": "address",
          "name": "oracleAddress",
          "type": "address"
        },
        {
          "internalType": "string",
          "name": "preqType",
          "type": "string"
        },
        {
          "internalType": "string",
          "name": "assetType",
          "type": "string"
        },
        {
          "internalType": "uint256",
          "name": "preqPowerTarget",
          "type": "uint256"
        },
        {
          "internalType": "uint256",
          "name": "preqPowerStart",
          "type": "uint256"
        }
      ],
      "name": "startPrequalification",
      "outputs": [],
      "stateMutability": "nonpayable",
      "type": "function"
    },
    {
      "inputs": [
        {
          "internalType": "bytes4",
          "name": "interfaceId",
          "type": "bytes4"
        }
      ],
      "name": "supportsInterface",
      "outputs": [
        {
          "internalType": "bool",
          "name": "",
          "type": "bool"
        }
      ],
      "stateMutability": "view",
      "type": "function"
    },
    {
      "inputs": [],
      "name": "symbol",
      "outputs": [
        {
          "internalType": "string",
          "name": "",
          "type": "string"
        }
      ],
      "stateMutability": "view",
      "type": "function"
    },
    {
      "inputs": [
        {
          "internalType": "uint256",
          "name": "index",
          "type": "uint256"
        }
      ],
      "name": "tokenByIndex",
      "outputs": [
        {
          "internalType": "uint256",
          "name": "",
          "type": "uint256"
        }
      ],
      "stateMutability": "view",
      "type": "function"
    },
    {
      "inputs": [
        {
          "internalType": "address",
          "name": "owner",
          "type": "address"
        },
        {
          "internalType": "uint256",
          "name": "index",
          "type": "uint256"
        }
      ],
      "name": "tokenOfOwnerByIndex",
      "outputs": [
        {
          "internalType": "uint256",
          "name": "",
          "type": "uint256"
        }
      ],
      "stateMutability": "view",
      "type": "function"
    },
    {
      "inputs": [
        {
          "internalType": "uint256",
          "name": "tokenId",
          "type": "uint256"
        }
      ],
      "name": "tokenURI",
      "outputs": [
        {
          "internalType": "string",
          "name": "",
          "type": "string"
        }
      ],
      "stateMutability": "view",
      "type": "function"
    },
    {
      "inputs": [],
      "name": "totalSupply",
      "outputs": [
        {
          "internalType": "uint256",
          "name": "",
          "type": "uint256"
        }
      ],
      "stateMutability": "view",
      "type": "function"
    },
    {
      "inputs": [
        {
          "internalType": "address",
          "name": "from",
          "type": "address"
        },
        {
          "internalType": "address",
          "name": "to",
          "type": "address"
        },
        {
          "internalType": "uint256",
          "name": "tokenId",
          "type": "uint256"
        }
      ],
      "name": "transferFrom",
      "outputs": [],
      "stateMutability": "nonpayable",
      "type": "function"
    }
  ],
  "bytecode": "0x60806040523480156200001157600080fd5b5060405162005b8e38038062005b8e83398181016040528101906200003791906200037a565b6040518060400160405280600781526020017f507265714e4654000000000000000000000000000000000000000000000000008152506040518060400160405280600481526020017f504e4654000000000000000000000000000000000000000000000000000000008152508160009081620000b4919062000626565b508060019081620000c6919062000626565b505050600073ffffffffffffffffffffffffffffffffffffffff168173ffffffffffffffffffffffffffffffffffffffff16036200013b576040517f08c379a000000000000000000000000000000000000000000000000000000000815260040162000132906200076e565b60405180910390fd5b620001506000801b336200019960201b60201c565b5080600b60006101000a81548173ffffffffffffffffffffffffffffffffffffffff021916908373ffffffffffffffffffffffffffffffffffffffff1602179055505062000790565b6000620001ad83836200029d60201b60201c565b62000292576001600a600085815260200190815260200160002060000160008473ffffffffffffffffffffffffffffffffffffffff1673ffffffffffffffffffffffffffffffffffffffff16815260200190815260200160002060006101000a81548160ff0219169083151502179055506200022e6200030860201b60201c565b73ffffffffffffffffffffffffffffffffffffffff168273ffffffffffffffffffffffffffffffffffffffff16847f2f8788117e7eff1d82e926ec794901d17c78024a50270940304540a733656f0d60405160405180910390a46001905062000297565b600090505b92915050565b6000600a600084815260200190815260200160002060000160008373ffffffffffffffffffffffffffffffffffffffff1673ffffffffffffffffffffffffffffffffffffffff16815260200190815260200160002060009054906101000a900460ff16905092915050565b600033905090565b600080fd5b600073ffffffffffffffffffffffffffffffffffffffff82169050919050565b6000620003428262000315565b9050919050565b620003548162000335565b81146200036057600080fd5b50565b600081519050620003748162000349565b92915050565b60006020828403121562000393576200039262000310565b5b6000620003a38482850162000363565b91505092915050565b600081519050919050565b7f4e487b7100000000000000000000000000000000000000000000000000000000600052604160045260246000fd5b7f4e487b7100000000000000000000000000000000000000000000000000000000600052602260045260246000fd5b600060028204905060018216806200042e57607f821691505b602082108103620004445762000443620003e6565b5b50919050565b60008190508160005260206000209050919050565b60006020601f8301049050919050565b600082821b905092915050565b600060088302620004ae7fffffffffffffffffffffffffffffffffffffffffffffffffffffffffffffffff826200046f565b620004ba86836200046f565b95508019841693508086168417925050509392505050565b6000819050919050565b6000819050919050565b60006200050762000501620004fb84620004d2565b620004dc565b620004d2565b9050919050565b6000819050919050565b6200052383620004e6565b6200053b62000532826200050e565b8484546200047c565b825550505050565b600090565b6200055262000543565b6200055f81848462000518565b505050565b5b8181101562000587576200057b60008262000548565b60018101905062000565565b5050565b601f821115620005d657620005a0816200044a565b620005ab846200045f565b81016020851015620005bb578190505b620005d3620005ca856200045f565b83018262000564565b50505b505050565b600082821c905092915050565b6000620005fb60001984600802620005db565b1980831691505092915050565b6000620006168383620005e8565b9150826002028217905092915050565b6200063182620003ac565b67ffffffffffffffff8111156200064d576200064c620003b7565b5b62000659825462000415565b620006668282856200058b565b600060209050601f8311600181146200069e576000841562000689578287015190505b62000695858262000608565b86555062000705565b601f198416620006ae866200044a565b60005b82811015620006d857848901518255600182019150602085019450602081019050620006b1565b86831015620006f85784890151620006f4601f891682620005e8565b8355505b6001600288020188555050505b505050505050565b600082825260208201905092915050565b7f496e76616c6964206f7261636c65207265676973747279206164647265737300600082015250565b600062000756601f836200070d565b915062000763826200071e565b602082019050919050565b60006020820190508181036000830152620007898162000747565b9050919050565b6153ee80620007a06000396000f3fe608060405234801561001057600080fd5b50600436106101da5760003560e01c80636352211e11610104578063b6cea620116100a2578063d547741f11610071578063d547741f146105a0578063e985e9c5146105bc578063efad4535146105ec578063f0fd28aa1461061e576101da565b8063b6cea6201461051c578063b88d4fde14610538578063c62da30614610554578063c87b56dd14610570576101da565b806391d14854116100de57806391d148541461049457806395d89b41146104c4578063a217fddf146104e2578063a22cb46514610500576101da565b80636352211e1461040157806370a0823114610431578063776719f114610461576101da565b8063248a9ca31161017c57806342842e0e1161014b57806342842e0e146103675780634f6ccce714610383578063565d878c146103b357806356dd6eb1146103d1576101da565b8063248a9ca3146102cf5780632f2ff15d146102ff5780632f745c591461031b57806336568abe1461034b576101da565b8063081812fc116101b8578063081812fc14610249578063095ea7b31461027957806318160ddd1461029557806323b872dd146102b3576101da565b806301012072146101df57806301ffc9a7146101fb57806306fdde031461022b575b600080fd5b6101f960048036038101906101f4919061378f565b61063a565b005b610215600480360381019061021091906138a2565b6107a7565b60405161022291906138ea565b60405180910390f35b6102336107b9565b6040516102409190613984565b60405180910390f35b610263600480360381019061025e91906139a6565b61084b565b6040516102709190613a14565b60405180910390f35b610293600480360381019061028e9190613a5b565b610867565b005b61029d61087d565b6040516102aa9190613aaa565b60405180910390f35b6102cd60048036038101906102c89190613ac5565b61088a565b005b6102e960048036038101906102e49190613b4e565b61098c565b6040516102f69190613b8a565b60405180910390f35b61031960048036038101906103149190613ba5565b6109ac565b005b61033560048036038101906103309190613a5b565b6109ce565b6040516103429190613aaa565b60405180910390f35b61036560048036038101906103609190613ba5565b610a77565b005b610381600480360381019061037c9190613ac5565b610af2565b005b61039d600480360381019061039891906139a6565b610b12565b6040516103aa9190613aaa565b60405180910390f35b6103bb610b88565b6040516103c89190613c44565b60405180910390f35b6103eb60048036038101906103e69190613c5f565b610bae565b6040516103f89190613984565b60405180910390f35b61041b600480360381019061041691906139a6565b610d3d565b6040516104289190613a14565b60405180910390f35b61044b60048036038101906104469190613c5f565b610d4f565b6040516104589190613aaa565b60405180910390f35b61047b60048036038101906104769190613c8c565b610e09565b60405161048b9493929190613de1565b60405180910390f35b6104ae60048036038101906104a99190613ba5565b61103e565b6040516104bb91906138ea565b60405180910390f35b6104cc6110a9565b6040516104d99190613984565b60405180910390f35b6104ea61113b565b6040516104f79190613b8a565b60405180910390f35b61051a60048036038101906105159190613e67565b611142565b005b61053660048036038101906105319190613ea7565b611158565b005b610552600480360381019061054d9190614029565b6113f5565b005b61056e600480360381019061056991906140ac565b611412565b005b61058a600480360381019061058591906139a6565b611477565b6040516105979190613984565b60405180910390f35b6105ba60048036038101906105b59190613ba5565b6114e0565b005b6105d660048036038101906105d191906141c5565b611502565b6040516105e391906138ea565b60405180910390f35b61060660048036038101906106019190614205565b611596565b6040516106159392919061427d565b60405180910390f35b610638600480360381019061063391906142c2565b61170d565b005b6000801b610647816119d3565b60008560405160200161065a919061445c565b6040516020818303038152906040528051906020012060001c905061067f33826119e7565b6000600c87604051610691919061445c565b90815260200160405180910390209050858160010190816106b29190614675565b50848160020181905550838160000190816106cd9190614675565b50600067ffffffffffffffff8111156106e9576106e861362e565b5b60405190808252806020026020018201604052801561071c57816020015b60608152602001906001900390816107075790505b50816003019080519060200190610734929190613525565b5083600f88604051610746919061445c565b908152602001604051809103902090816107609190614675565b507fcb431de84ace76168612d6653421031eb53d00d6d057034a4b29c6d5e2b2fd25878787876040516107969493929190614747565b60405180910390a150505050505050565b60006107b282611ae0565b9050919050565b6060600080546107c8906144a2565b80601f01602080910402602001604051908101604052809291908181526020018280546107f4906144a2565b80156108415780601f1061081657610100808354040283529160200191610841565b820191906000526020600020905b81548152906001019060200180831161082457829003601f168201915b5050505050905090565b600061085682611b5a565b5061086082611be2565b9050919050565b6108798282610874611c1f565b611c27565b5050565b6000600880549050905090565b600073ffffffffffffffffffffffffffffffffffffffff168273ffffffffffffffffffffffffffffffffffffffff16036108fc5760006040517f64a0ae920000000000000000000000000000000000000000000000000000000081526004016108f39190613a14565b60405180910390fd5b6000610910838361090b611c1f565b611c39565b90508373ffffffffffffffffffffffffffffffffffffffff168173ffffffffffffffffffffffffffffffffffffffff1614610986578382826040517f64283d7b00000000000000000000000000000000000000000000000000000000815260040161097d939291906147a1565b60405180910390fd5b50505050565b6000600a6000838152602001908152602001600020600101549050919050565b6109b58261098c565b6109be816119d3565b6109c88383611d56565b50505050565b60006109d983610d4f565b8210610a1e5782826040517fa57d13dc000000000000000000000000000000000000000000000000000000008152600401610a159291906147d8565b60405180910390fd5b600660008473ffffffffffffffffffffffffffffffffffffffff1673ffffffffffffffffffffffffffffffffffffffff168152602001908152602001600020600083815260200190815260200160002054905092915050565b610a7f611c1f565b73ffffffffffffffffffffffffffffffffffffffff168173ffffffffffffffffffffffffffffffffffffffff1614610ae3576040517f6697b23200000000000000000000000000000000000000000000000000000000815260040160405180910390fd5b610aed8282611e48565b505050565b610b0d838383604051806020016040528060008152506113f5565b505050565b6000610b1c61087d565b8210610b62576000826040517fa57d13dc000000000000000000000000000000000000000000000000000000008152600401610b599291906147d8565b60405180910390fd5b60088281548110610b7657610b75614801565b5b90600052602060002001549050919050565b600b60009054906101000a900473ffffffffffffffffffffffffffffffffffffffff1681565b6060600b60009054906101000a900473ffffffffffffffffffffffffffffffffffffffff1673ffffffffffffffffffffffffffffffffffffffff1663a97e5c93836040518263ffffffff1660e01b8152600401610c0b9190613a14565b602060405180830381865afa158015610c28573d6000803e3d6000fd5b505050506040513d601f19601f82011682018060405250810190610c4c9190614845565b610c8b576040517f08c379a0000000000000000000000000000000000000000000000000000000008152600401610c82906148e4565b60405180910390fd5b6000600b60009054906101000a900473ffffffffffffffffffffffffffffffffffffffff1673ffffffffffffffffffffffffffffffffffffffff166310d3d22e846040518263ffffffff1660e01b8152600401610ce89190613a14565b600060405180830381865afa158015610d05573d6000803e3d6000fd5b505050506040513d6000823e3d601f19601f82011682018060405250810190610d2e91906149ff565b90508060200151915050919050565b6000610d4882611b5a565b9050919050565b60008073ffffffffffffffffffffffffffffffffffffffff168273ffffffffffffffffffffffffffffffffffffffff1603610dc25760006040517f89c62b64000000000000000000000000000000000000000000000000000000008152600401610db99190613a14565b60405180910390fd5b600360008373ffffffffffffffffffffffffffffffffffffffff1673ffffffffffffffffffffffffffffffffffffffff168152602001908152602001600020549050919050565b606080600060606000600c86604051610e22919061445c565b908152602001604051809103902090508060000181600101826002015483600301838054610e4f906144a2565b80601f0160208091040260200160405190810160405280929190818152602001828054610e7b906144a2565b8015610ec85780601f10610e9d57610100808354040283529160200191610ec8565b820191906000526020600020905b815481529060010190602001808311610eab57829003601f168201915b50505050509350828054610edb906144a2565b80601f0160208091040260200160405190810160405280929190818152602001828054610f07906144a2565b8015610f545780601f10610f2957610100808354040283529160200191610f54565b820191906000526020600020905b815481529060010190602001808311610f3757829003601f168201915b5050505050925080805480602002602001604051908101604052809291908181526020016000905b82821015611028578382906000526020600020018054610f9b906144a2565b80601f0160208091040260200160405190810160405280929190818152602001828054610fc7906144a2565b80156110145780601f10610fe957610100808354040283529160200191611014565b820191906000526020600020905b815481529060010190602001808311610ff757829003601f168201915b505050505081526020019060010190610f7c565b5050505090509450945094509450509193509193565b6000600a600084815260200190815260200160002060000160008373ffffffffffffffffffffffffffffffffffffffff1673ffffffffffffffffffffffffffffffffffffffff16815260200190815260200160002060009054906101000a900460ff16905092915050565b6060600180546110b8906144a2565b80601f01602080910402602001604051908101604052809291908181526020018280546110e4906144a2565b80156111315780601f1061110657610100808354040283529160200191611131565b820191906000526020600020905b81548152906001019060200180831161111457829003601f168201915b5050505050905090565b6000801b81565b61115461114d611c1f565b8383611f3b565b5050565b600b60009054906101000a900473ffffffffffffffffffffffffffffffffffffffff1673ffffffffffffffffffffffffffffffffffffffff1663a97e5c93336040518263ffffffff1660e01b81526004016111b39190613a14565b602060405180830381865afa1580156111d0573d6000803e3d6000fd5b505050506040513d601f19601f820116820180604052508101906111f49190614845565b611233576040517f08c379a000000000000000000000000000000000000000000000000000000000815260040161122a90614aba565b60405180910390fd5b600061123e86610bae565b90506000600f88604051611252919061445c565b9081526020016040518091039020805461126b906144a2565b80601f0160208091040260200160405190810160405280929190818152602001828054611297906144a2565b80156112e45780601f106112b9576101008083540402835291602001916112e4565b820191906000526020600020905b8154815290600101906020018083116112c757829003601f168201915b505050505090506112f581836120aa565b611334576040517f08c379a000000000000000000000000000000000000000000000000000000000815260040161132b90614b26565b60405180910390fd5b60004289893360405160200161134d9493929190614baf565b6040516020818303038152906040528051906020012060001c905080600e8a604051611379919061445c565b908152602001604051809103902088604051611395919061445c565b9081526020016040518091039020819055507f92b7f8c86452b60d411d47333ca74e272d9eca1ea66b2294dd7eab894bf66f9f898989898989876040516113e29796959493929190614bf9565b60405180910390a1505050505050505050565b61140084848461088a565b61140c84848484612103565b50505050565b6000801b61141f816119d3565b61142c87878787876122ba565b7f9ef476fe429562ad0651c005d3448dead56b6f21fd8cb232eb921cf8b231a4846000888888888760405161146696959493929190614cb8565b60405180910390a150505050505050565b606061148282611b5a565b50600061148d6124f8565b905060008151116114ad57604051806020016040528060008152506114d8565b806114b78461250f565b6040516020016114c8929190614d35565b6040516020818303038152906040525b915050919050565b6114e98261098c565b6114f2816119d3565b6114fc8383611e48565b50505050565b6000600560008473ffffffffffffffffffffffffffffffffffffffff1673ffffffffffffffffffffffffffffffffffffffff16815260200190815260200160002060008373ffffffffffffffffffffffffffffffffffffffff1673ffffffffffffffffffffffffffffffffffffffff16815260200190815260200160002060009054906101000a900460ff16905092915050565b6060600060606000600d866040516115ae919061445c565b9081526020016040518091039020856040516115ca919061445c565b90815260200160405180910390209050806000018160010154826002018280546115f3906144a2565b80601f016020809104026020016040519081016040528092919081815260200182805461161f906144a2565b801561166c5780601f106116415761010080835404028352916020019161166c565b820191906000526020600020905b81548152906001019060200180831161164f57829003601f168201915b5050505050925080805461167f906144a2565b80601f01602080910402602001604051908101604052809291908181526020018280546116ab906144a2565b80156116f85780601f106116cd576101008083540402835291602001916116f8565b820191906000526020600020905b8154815290600101906020018083116116db57829003601f168201915b50505050509050935093509350509250925092565b600b60009054906101000a900473ffffffffffffffffffffffffffffffffffffffff1673ffffffffffffffffffffffffffffffffffffffff1663a97e5c93336040518263ffffffff1660e01b81526004016117689190613a14565b602060405180830381865afa158015611785573d6000803e3d6000fd5b505050506040513d601f19601f820116820180604052508101906117a99190614845565b6117e8576040517f08c379a00000000000000000000000000000000000000000000000000000000081526004016117df90614da5565b60405180910390fd5b82600e896040516117f9919061445c565b908152602001604051809103902087604051611815919061445c565b90815260200160405180910390205414611864576040517f08c379a000000000000000000000000000000000000000000000000000000000815260040161185b90614e11565b60405180910390fd5b600088888888888860405160200161188196959493929190614e31565b6040516020818303038152906040528051906020012090506000816040516020016118ac9190614efe565b6040516020818303038152906040528051906020012090503373ffffffffffffffffffffffffffffffffffffffff166118e582856125dd565b73ffffffffffffffffffffffffffffffffffffffff161461193b576040517f08c379a000000000000000000000000000000000000000000000000000000000815260040161193290614f70565b60405180910390fd5b6119488a8a8a8a8a6122ba565b7f9ef476fe429562ad0651c005d3448dead56b6f21fd8cb232eb921cf8b231a484858b8b8b8b8960405161198196959493929190614f90565b60405180910390a1600e8a604051611999919061445c565b9081526020016040518091039020886040516119b5919061445c565b90815260200160405180910390206000905550505050505050505050565b6119e4816119df611c1f565b6125fe565b50565b600073ffffffffffffffffffffffffffffffffffffffff168273ffffffffffffffffffffffffffffffffffffffff1603611a595760006040517f64a0ae92000000000000000000000000000000000000000000000000000000008152600401611a509190613a14565b60405180910390fd5b6000611a6783836000611c39565b9050600073ffffffffffffffffffffffffffffffffffffffff168173ffffffffffffffffffffffffffffffffffffffff1614611adb5760006040517f73c6ac6e000000000000000000000000000000000000000000000000000000008152600401611ad29190613a14565b60405180910390fd5b505050565b60007f7965db0b000000000000000000000000000000000000000000000000000000007bffffffffffffffffffffffffffffffffffffffffffffffffffffffff1916827bffffffffffffffffffffffffffffffffffffffffffffffffffffffff19161480611b535750611b528261264f565b5b9050919050565b600080611b66836126c9565b9050600073ffffffffffffffffffffffffffffffffffffffff168173ffffffffffffffffffffffffffffffffffffffff1603611bd957826040517f7e273289000000000000000000000000000000000000000000000000000000008152600401611bd09190613aaa565b60405180910390fd5b80915050919050565b60006004600083815260200190815260200160002060009054906101000a900473ffffffffffffffffffffffffffffffffffffffff169050919050565b600033905090565b611c348383836001612706565b505050565b600080611c478585856128cb565b9050600073ffffffffffffffffffffffffffffffffffffffff168173ffffffffffffffffffffffffffffffffffffffff1603611c8b57611c8684612ae5565b611cca565b8473ffffffffffffffffffffffffffffffffffffffff168173ffffffffffffffffffffffffffffffffffffffff1614611cc957611cc88185612b2e565b5b5b600073ffffffffffffffffffffffffffffffffffffffff168573ffffffffffffffffffffffffffffffffffffffff1603611d0c57611d0784612c8f565b611d4b565b8473ffffffffffffffffffffffffffffffffffffffff168173ffffffffffffffffffffffffffffffffffffffff1614611d4a57611d498585612d60565b5b5b809150509392505050565b6000611d62838361103e565b611e3d576001600a600085815260200190815260200160002060000160008473ffffffffffffffffffffffffffffffffffffffff1673ffffffffffffffffffffffffffffffffffffffff16815260200190815260200160002060006101000a81548160ff021916908315150217905550611dda611c1f565b73ffffffffffffffffffffffffffffffffffffffff168273ffffffffffffffffffffffffffffffffffffffff16847f2f8788117e7eff1d82e926ec794901d17c78024a50270940304540a733656f0d60405160405180910390a460019050611e42565b600090505b92915050565b6000611e54838361103e565b15611f30576000600a600085815260200190815260200160002060000160008473ffffffffffffffffffffffffffffffffffffffff1673ffffffffffffffffffffffffffffffffffffffff16815260200190815260200160002060006101000a81548160ff021916908315150217905550611ecd611c1f565b73ffffffffffffffffffffffffffffffffffffffff168273ffffffffffffffffffffffffffffffffffffffff16847ff6391f5c32d9c69d2a47ea670b442974b53935d1edc7fd64eb21e047a839171b60405160405180910390a460019050611f35565b600090505b92915050565b600073ffffffffffffffffffffffffffffffffffffffff168273ffffffffffffffffffffffffffffffffffffffff1603611fac57816040517f5b08ba18000000000000000000000000000000000000000000000000000000008152600401611fa39190613a14565b60405180910390fd5b80600560008573ffffffffffffffffffffffffffffffffffffffff1673ffffffffffffffffffffffffffffffffffffffff16815260200190815260200160002060008473ffffffffffffffffffffffffffffffffffffffff1673ffffffffffffffffffffffffffffffffffffffff16815260200190815260200160002060006101000a81548160ff0219169083151502179055508173ffffffffffffffffffffffffffffffffffffffff168373ffffffffffffffffffffffffffffffffffffffff167f17307eab39ab6107e8899845ad3d59bd9653f200f220920489ca2b5937696c318360405161209d91906138ea565b60405180910390a3505050565b6000816040516020016120bd919061445c565b60405160208183030381529060405280519060200120836040516020016120e4919061445c565b6040516020818303038152906040528051906020012014905092915050565b60008373ffffffffffffffffffffffffffffffffffffffff163b11156122b4578273ffffffffffffffffffffffffffffffffffffffff1663150b7a02612147611c1f565b8685856040518563ffffffff1660e01b81526004016121699493929190615062565b6020604051808303816000875af19250505080156121a557506040513d601f19601f820116820180604052508101906121a291906150c3565b60015b612229573d80600081146121d5576040519150601f19603f3d011682016040523d82523d6000602084013e6121da565b606091505b50600081510361222157836040517f64a0ae920000000000000000000000000000000000000000000000000000000081526004016122189190613a14565b60405180910390fd5b805181602001fd5b63150b7a0260e01b7bffffffffffffffffffffffffffffffffffffffffffffffffffffffff1916817bffffffffffffffffffffffffffffffffffffffffffffffffffffffff1916146122b257836040517f64a0ae920000000000000000000000000000000000000000000000000000000081526004016122a99190613a14565b60405180910390fd5b505b50505050565b6000856040516020016122cd919061445c565b6040516020818303038152906040528051906020012060001c9050600073ffffffffffffffffffffffffffffffffffffffff16612309826126c9565b73ffffffffffffffffffffffffffffffffffffffff160361235f576040517f08c379a00000000000000000000000000000000000000000000000000000000081526004016123569061513c565b60405180910390fd5b6000600c87604051612371919061445c565b90815260200160405180910390209050604051806060016040528087815260200185815260200184815250600d886040516123ac919061445c565b9081526020016040518091039020866040516123c8919061445c565b908152602001604051809103902060008201518160000190816123eb9190614675565b5060208201518160010155604082015181600201908161240b9190614675565b509050506000805b82600301805490508110156124b05786604051602001612433919061445c565b6040516020818303038152906040528051906020012083600301828154811061245f5761245e614801565b5b9060005260206000200160405160200161247991906151df565b604051602081830303815290604052805190602001200361249d57600191506124b0565b80806124a890615225565b915050612413565b50806124ee5781600301869080600181540180825580915050600190039060005260206000200160009091909190915090816124ec9190614675565b505b5050505050505050565b606060405180602001604052806000815250905090565b60606000600161251e84612deb565b01905060008167ffffffffffffffff81111561253d5761253c61362e565b5b6040519080825280601f01601f19166020018201604052801561256f5781602001600182028036833780820191505090505b509050600082602001820190505b6001156125d2578080600190039150507f3031323334353637383961626364656600000000000000000000000000000000600a86061a8153600a85816125c6576125c561526d565b5b0494506000850361257d575b819350505050919050565b6000806125e984612f3e565b90506125f58184612f74565b91505092915050565b612608828261103e565b61264b5780826040517fe2517d3f00000000000000000000000000000000000000000000000000000000815260040161264292919061529c565b60405180910390fd5b5050565b60007f780e9d63000000000000000000000000000000000000000000000000000000007bffffffffffffffffffffffffffffffffffffffffffffffffffffffff1916827bffffffffffffffffffffffffffffffffffffffffffffffffffffffff191614806126c257506126c182612fa0565b5b9050919050565b60006002600083815260200190815260200160002060009054906101000a900473ffffffffffffffffffffffffffffffffffffffff169050919050565b808061273f5750600073ffffffffffffffffffffffffffffffffffffffff168273ffffffffffffffffffffffffffffffffffffffff1614155b1561287357600061274f84611b5a565b9050600073ffffffffffffffffffffffffffffffffffffffff168373ffffffffffffffffffffffffffffffffffffffff16141580156127ba57508273ffffffffffffffffffffffffffffffffffffffff168173ffffffffffffffffffffffffffffffffffffffff1614155b80156127cd57506127cb8184611502565b155b1561280f57826040517fa9fbf51f0000000000000000000000000000000000000000000000000000000081526004016128069190613a14565b60405180910390fd5b811561287157838573ffffffffffffffffffffffffffffffffffffffff168273ffffffffffffffffffffffffffffffffffffffff167f8c5be1e5ebec7d5bd14f71427d1e84f3dd0314c0f7b2291e5b200ac8c7c3b92560405160405180910390a45b505b836004600085815260200190815260200160002060006101000a81548173ffffffffffffffffffffffffffffffffffffffff021916908373ffffffffffffffffffffffffffffffffffffffff16021790555050505050565b6000806128d7846126c9565b9050600073ffffffffffffffffffffffffffffffffffffffff168373ffffffffffffffffffffffffffffffffffffffff161461291957612918818486613082565b5b600073ffffffffffffffffffffffffffffffffffffffff168173ffffffffffffffffffffffffffffffffffffffff16146129aa5761295b600085600080612706565b6001600360008373ffffffffffffffffffffffffffffffffffffffff1673ffffffffffffffffffffffffffffffffffffffff168152602001908152602001600020600082825403925050819055505b600073ffffffffffffffffffffffffffffffffffffffff168573ffffffffffffffffffffffffffffffffffffffff1614612a2d576001600360008773ffffffffffffffffffffffffffffffffffffffff1673ffffffffffffffffffffffffffffffffffffffff168152602001908152602001600020600082825401925050819055505b846002600086815260200190815260200160002060006101000a81548173ffffffffffffffffffffffffffffffffffffffff021916908373ffffffffffffffffffffffffffffffffffffffff160217905550838573ffffffffffffffffffffffffffffffffffffffff168273ffffffffffffffffffffffffffffffffffffffff167fddf252ad1be2c89b69c2b068fc378daa952ba7f163c4a11628f55a4df523b3ef60405160405180910390a4809150509392505050565b6008805490506009600083815260200190815260200160002081905550600881908060018154018082558091505060019003906000526020600020016000909190919091505550565b6000612b3983610d4f565b9050600060076000848152602001908152602001600020549050818114612c1e576000600660008673ffffffffffffffffffffffffffffffffffffffff1673ffffffffffffffffffffffffffffffffffffffff168152602001908152602001600020600084815260200190815260200160002054905080600660008773ffffffffffffffffffffffffffffffffffffffff1673ffffffffffffffffffffffffffffffffffffffff168152602001908152602001600020600084815260200190815260200160002081905550816007600083815260200190815260200160002081905550505b6007600084815260200190815260200160002060009055600660008573ffffffffffffffffffffffffffffffffffffffff1673ffffffffffffffffffffffffffffffffffffffff16815260200190815260200160002060008381526020019081526020016000206000905550505050565b60006001600880549050612ca391906152c5565b9050600060096000848152602001908152602001600020549050600060088381548110612cd357612cd2614801565b5b906000526020600020015490508060088381548110612cf557612cf4614801565b5b906000526020600020018190555081600960008381526020019081526020016000208190555060096000858152602001908152602001600020600090556008805480612d4457612d436152f9565b5b6001900381819060005260206000200160009055905550505050565b60006001612d6d84610d4f565b612d7791906152c5565b905081600660008573ffffffffffffffffffffffffffffffffffffffff1673ffffffffffffffffffffffffffffffffffffffff168152602001908152602001600020600083815260200190815260200160002081905550806007600084815260200190815260200160002081905550505050565b600080600090507a184f03e93ff9f4daa797ed6e38ed64bf6a1f0100000000000000008310612e49577a184f03e93ff9f4daa797ed6e38ed64bf6a1f0100000000000000008381612e3f57612e3e61526d565b5b0492506040810190505b6d04ee2d6d415b85acef81000000008310612e86576d04ee2d6d415b85acef81000000008381612e7c57612e7b61526d565b5b0492506020810190505b662386f26fc100008310612eb557662386f26fc100008381612eab57612eaa61526d565b5b0492506010810190505b6305f5e1008310612ede576305f5e1008381612ed457612ed361526d565b5b0492506008810190505b6127108310612f03576127108381612ef957612ef861526d565b5b0492506004810190505b60648310612f265760648381612f1c57612f1b61526d565b5b0492506002810190505b600a8310612f35576001810190505b80915050919050565b60007f19457468657265756d205369676e6564204d6573736167653a0a33320000000060005281601c52603c6000209050919050565b600080600080612f848686613146565b925092509250612f9482826131a2565b82935050505092915050565b60007f80ac58cd000000000000000000000000000000000000000000000000000000007bffffffffffffffffffffffffffffffffffffffffffffffffffffffff1916827bffffffffffffffffffffffffffffffffffffffffffffffffffffffff1916148061306b57507f5b5e139f000000000000000000000000000000000000000000000000000000007bffffffffffffffffffffffffffffffffffffffffffffffffffffffff1916827bffffffffffffffffffffffffffffffffffffffffffffffffffffffff1916145b8061307b575061307a82613306565b5b9050919050565b61308d838383613370565b61314157600073ffffffffffffffffffffffffffffffffffffffff168373ffffffffffffffffffffffffffffffffffffffff160361310257806040517f7e2732890000000000000000000000000000000000000000000000000000000081526004016130f99190613aaa565b60405180910390fd5b81816040517f177e802f0000000000000000000000000000000000000000000000000000000081526004016131389291906147d8565b60405180910390fd5b505050565b6000806000604184510361318b5760008060006020870151925060408701519150606087015160001a905061317d88828585613431565b95509550955050505061319b565b60006002855160001b9250925092505b9250925092565b600060038111156131b6576131b5615328565b5b8260038111156131c9576131c8615328565b5b031561330257600160038111156131e3576131e2615328565b5b8260038111156131f6576131f5615328565b5b0361322d576040517ff645eedf00000000000000000000000000000000000000000000000000000000815260040160405180910390fd5b6002600381111561324157613240615328565b5b82600381111561325457613253615328565b5b03613299578060001c6040517ffce698f70000000000000000000000000000000000000000000000000000000081526004016132909190613aaa565b60405180910390fd5b6003808111156132ac576132ab615328565b5b8260038111156132bf576132be615328565b5b0361330157806040517fd78bce0c0000000000000000000000000000000000000000000000000000000081526004016132f89190613b8a565b60405180910390fd5b5b5050565b60007f01ffc9a7000000000000000000000000000000000000000000000000000000007bffffffffffffffffffffffffffffffffffffffffffffffffffffffff1916827bffffffffffffffffffffffffffffffffffffffffffffffffffffffff1916149050919050565b60008073ffffffffffffffffffffffffffffffffffffffff168373ffffffffffffffffffffffffffffffffffffffff161415801561342857508273ffffffffffffffffffffffffffffffffffffffff168473ffffffffffffffffffffffffffffffffffffffff1614806133e957506133e88484611502565b5b8061342757508273ffffffffffffffffffffffffffffffffffffffff1661340f83611be2565b73ffffffffffffffffffffffffffffffffffffffff16145b5b90509392505050565b60008060007f7fffffffffffffffffffffffffffffff5d576e7357a4501ddfe92f46681b20a08460001c111561347157600060038592509250925061351b565b6000600188888888604051600081526020016040526040516134969493929190615373565b6020604051602081039080840390855afa1580156134b8573d6000803e3d6000fd5b505050602060405103519050600073ffffffffffffffffffffffffffffffffffffffff168173ffffffffffffffffffffffffffffffffffffffff160361350c57600060016000801b9350935093505061351b565b8060008060001b935093509350505b9450945094915050565b82805482825590600052602060002090810192821561356d579160200282015b8281111561356c57825182908161355c9190614675565b5091602001919060010190613545565b5b50905061357a919061357e565b5090565b5b8082111561359e576000818161359591906135a2565b5060010161357f565b5090565b5080546135ae906144a2565b6000825580601f106135c057506135df565b601f0160209004906000526020600020908101906135de91906135e2565b5b50565b5b808211156135fb5760008160009055506001016135e3565b5090565b6000604051905090565b600080fd5b600080fd5b600080fd5b600080fd5b6000601f19601f8301169050919050565b7f4e487b7100000000000000000000000000000000000000000000000000000000600052604160045260246000fd5b6136668261361d565b810181811067ffffffffffffffff821117156136855761368461362e565b5b80604052505050565b60006136986135ff565b90506136a4828261365d565b919050565b600067ffffffffffffffff8211156136c4576136c361362e565b5b6136cd8261361d565b9050602081019050919050565b82818337600083830152505050565b60006136fc6136f7846136a9565b61368e565b90508281526020810184848401111561371857613717613618565b5b6137238482856136da565b509392505050565b600082601f8301126137405761373f613613565b5b81356137508482602086016136e9565b91505092915050565b6000819050919050565b61376c81613759565b811461377757600080fd5b50565b60008135905061378981613763565b92915050565b600080600080608085870312156137a9576137a8613609565b5b600085013567ffffffffffffffff8111156137c7576137c661360e565b5b6137d38782880161372b565b945050602085013567ffffffffffffffff8111156137f4576137f361360e565b5b6138008782880161372b565b93505060406138118782880161377a565b925050606085013567ffffffffffffffff8111156138325761383161360e565b5b61383e8782880161372b565b91505092959194509250565b60007fffffffff0000000000000000000000000000000000000000000000000000000082169050919050565b61387f8161384a565b811461388a57600080fd5b50565b60008135905061389c81613876565b92915050565b6000602082840312156138b8576138b7613609565b5b60006138c68482850161388d565b91505092915050565b60008115159050919050565b6138e4816138cf565b82525050565b60006020820190506138ff60008301846138db565b92915050565b600081519050919050565b600082825260208201905092915050565b60005b8381101561393f578082015181840152602081019050613924565b60008484015250505050565b600061395682613905565b6139608185613910565b9350613970818560208601613921565b6139798161361d565b840191505092915050565b6000602082019050818103600083015261399e818461394b565b905092915050565b6000602082840312156139bc576139bb613609565b5b60006139ca8482850161377a565b91505092915050565b600073ffffffffffffffffffffffffffffffffffffffff82169050919050565b60006139fe826139d3565b9050919050565b613a0e816139f3565b82525050565b6000602082019050613a296000830184613a05565b92915050565b613a38816139f3565b8114613a4357600080fd5b50565b600081359050613a5581613a2f565b92915050565b60008060408385031215613a7257613a71613609565b5b6000613a8085828601613a46565b9250506020613a918582860161377a565b9150509250929050565b613aa481613759565b82525050565b6000602082019050613abf6000830184613a9b565b92915050565b600080600060608486031215613ade57613add613609565b5b6000613aec86828701613a46565b9350506020613afd86828701613a46565b9250506040613b0e8682870161377a565b9150509250925092565b6000819050919050565b613b2b81613b18565b8114613b3657600080fd5b50565b600081359050613b4881613b22565b92915050565b600060208284031215613b6457613b63613609565b5b6000613b7284828501613b39565b91505092915050565b613b8481613b18565b82525050565b6000602082019050613b9f6000830184613b7b565b92915050565b60008060408385031215613bbc57613bbb613609565b5b6000613bca85828601613b39565b9250506020613bdb85828601613a46565b9150509250929050565b6000819050919050565b6000613c0a613c05613c00846139d3565b613be5565b6139d3565b9050919050565b6000613c1c82613bef565b9050919050565b6000613c2e82613c11565b9050919050565b613c3e81613c23565b82525050565b6000602082019050613c596000830184613c35565b92915050565b600060208284031215613c7557613c74613609565b5b6000613c8384828501613a46565b91505092915050565b600060208284031215613ca257613ca1613609565b5b600082013567ffffffffffffffff811115613cc057613cbf61360e565b5b613ccc8482850161372b565b91505092915050565b600081519050919050565b600082825260208201905092915050565b6000819050602082019050919050565b600082825260208201905092915050565b6000613d1d82613905565b613d278185613d01565b9350613d37818560208601613921565b613d408161361d565b840191505092915050565b6000613d578383613d12565b905092915050565b6000602082019050919050565b6000613d7782613cd5565b613d818185613ce0565b935083602082028501613d9385613cf1565b8060005b85811015613dcf5784840389528151613db08582613d4b565b9450613dbb83613d5f565b925060208a01995050600181019050613d97565b50829750879550505050505092915050565b60006080820190508181036000830152613dfb818761394b565b90508181036020830152613e0f818661394b565b9050613e1e6040830185613a9b565b8181036060830152613e308184613d6c565b905095945050505050565b613e44816138cf565b8114613e4f57600080fd5b50565b600081359050613e6181613e3b565b92915050565b60008060408385031215613e7e57613e7d613609565b5b6000613e8c85828601613a46565b9250506020613e9d85828601613e52565b9150509250929050565b60008060008060008060c08789031215613ec457613ec3613609565b5b600087013567ffffffffffffffff811115613ee257613ee161360e565b5b613eee89828a0161372b565b9650506020613eff89828a01613a46565b955050604087013567ffffffffffffffff811115613f2057613f1f61360e565b5b613f2c89828a0161372b565b945050606087013567ffffffffffffffff811115613f4d57613f4c61360e565b5b613f5989828a0161372b565b9350506080613f6a89828a0161377a565b92505060a0613f7b89828a0161377a565b9150509295509295509295565b600067ffffffffffffffff821115613fa357613fa261362e565b5b613fac8261361d565b9050602081019050919050565b6000613fcc613fc784613f88565b61368e565b905082815260208101848484011115613fe857613fe7613618565b5b613ff38482856136da565b509392505050565b600082601f8301126140105761400f613613565b5b8135614020848260208601613fb9565b91505092915050565b6000806000806080858703121561404357614042613609565b5b600061405187828801613a46565b945050602061406287828801613a46565b93505060406140738782880161377a565b925050606085013567ffffffffffffffff8111156140945761409361360e565b5b6140a087828801613ffb565b91505092959194509250565b60008060008060008060c087890312156140c9576140c8613609565b5b600087013567ffffffffffffffff8111156140e7576140e661360e565b5b6140f389828a0161372b565b965050602087013567ffffffffffffffff8111156141145761411361360e565b5b61412089828a0161372b565b955050604087013567ffffffffffffffff8111156141415761414061360e565b5b61414d89828a0161372b565b945050606061415e89828a0161377a565b935050608087013567ffffffffffffffff81111561417f5761417e61360e565b5b61418b89828a0161372b565b92505060a087013567ffffffffffffffff8111156141ac576141ab61360e565b5b6141b889828a0161372b565b9150509295509295509295565b600080604083850312156141dc576141db613609565b5b60006141ea85828601613a46565b92505060206141fb85828601613a46565b9150509250929050565b6000806040838503121561421c5761421b613609565b5b600083013567ffffffffffffffff81111561423a5761423961360e565b5b6142468582860161372b565b925050602083013567ffffffffffffffff8111156142675761426661360e565b5b6142738582860161372b565b9150509250929050565b60006060820190508181036000830152614297818661394b565b90506142a66020830185613a9b565b81810360408301526142b8818461394b565b9050949350505050565b600080600080600080600080610100898b0312156142e3576142e2613609565b5b600089013567ffffffffffffffff8111156143015761430061360e565b5b61430d8b828c0161372b565b985050602089013567ffffffffffffffff81111561432e5761432d61360e565b5b61433a8b828c0161372b565b975050604089013567ffffffffffffffff81111561435b5761435a61360e565b5b6143678b828c0161372b565b96505060606143788b828c0161377a565b955050608089013567ffffffffffffffff8111156143995761439861360e565b5b6143a58b828c0161372b565b94505060a06143b68b828c0161377a565b93505060c089013567ffffffffffffffff8111156143d7576143d661360e565b5b6143e38b828c0161372b565b92505060e089013567ffffffffffffffff8111156144045761440361360e565b5b6144108b828c01613ffb565b9150509295985092959890939650565b600081905092915050565b600061443682613905565b6144408185614420565b9350614450818560208601613921565b80840191505092915050565b6000614468828461442b565b915081905092915050565b7f4e487b7100000000000000000000000000000000000000000000000000000000600052602260045260246000fd5b600060028204905060018216806144ba57607f821691505b6020821081036144cd576144cc614473565b5b50919050565b60008190508160005260206000209050919050565b60006020601f8301049050919050565b600082821b905092915050565b6000600883026145357fffffffffffffffffffffffffffffffffffffffffffffffffffffffffffffffff826144f8565b61453f86836144f8565b95508019841693508086168417925050509392505050565b600061457261456d61456884613759565b613be5565b613759565b9050919050565b6000819050919050565b61458c83614557565b6145a061459882614579565b848454614505565b825550505050565b600090565b6145b56145a8565b6145c0818484614583565b505050565b5b818110156145e4576145d96000826145ad565b6001810190506145c6565b5050565b601f821115614629576145fa816144d3565b614603846144e8565b81016020851015614612578190505b61462661461e856144e8565b8301826145c5565b50505b505050565b600082821c905092915050565b600061464c6000198460080261462e565b1980831691505092915050565b6000614665838361463b565b9150826002028217905092915050565b61467e82613905565b67ffffffffffffffff8111156146975761469661362e565b5b6146a182546144a2565b6146ac8282856145e8565b600060209050601f8311600181146146df57600084156146cd578287015190505b6146d78582614659565b86555061473f565b601f1984166146ed866144d3565b60005b82811015614715578489015182556001820191506020850194506020810190506146f0565b86831015614732578489015161472e601f89168261463b565b8355505b6001600288020188555050505b505050505050565b60006080820190508181036000830152614761818761394b565b90508181036020830152614775818661394b565b90506147846040830185613a9b565b8181036060830152614796818461394b565b905095945050505050565b60006060820190506147b66000830186613a05565b6147c36020830185613a9b565b6147d06040830184613a05565b949350505050565b60006040820190506147ed6000830185613a05565b6147fa6020830184613a9b565b9392505050565b7f4e487b7100000000000000000000000000000000000000000000000000000000600052603260045260246000fd5b60008151905061483f81613e3b565b92915050565b60006020828403121561485b5761485a613609565b5b600061486984828501614830565b91505092915050565b7f41646472657373206973206e6f7420612072656769737465726564206f72616360008201527f6c65000000000000000000000000000000000000000000000000000000000000602082015250565b60006148ce602283613910565b91506148d982614872565b604082019050919050565b600060208201905081810360008301526148fd816148c1565b9050919050565b600080fd5b600080fd5b60008151905061491d81613a2f565b92915050565b6000614936614931846136a9565b61368e565b90508281526020810184848401111561495257614951613618565b5b61495d848285613921565b509392505050565b600082601f83011261497a57614979613613565b5b815161498a848260208601614923565b91505092915050565b6000604082840312156149a9576149a8614904565b5b6149b3604061368e565b905060006149c38482850161490e565b600083015250602082015167ffffffffffffffff8111156149e7576149e6614909565b5b6149f384828501614965565b60208301525092915050565b600060208284031215614a1557614a14613609565b5b600082015167ffffffffffffffff811115614a3357614a3261360e565b5b614a3f84828501614993565b91505092915050565b7f4f6e6c79206f7261636c65732063616e2073746172742061207468652050726560008201527f7175616c696669636174696f6e00000000000000000000000000000000000000602082015250565b6000614aa4602d83613910565b9150614aaf82614a48565b604082019050919050565b60006020820190508181036000830152614ad381614a97565b9050919050565b7f4449447320646f206e6f74206d61746368000000000000000000000000000000600082015250565b6000614b10601183613910565b9150614b1b82614ada565b602082019050919050565b60006020820190508181036000830152614b3f81614b03565b9050919050565b6000819050919050565b614b61614b5c82613759565b614b46565b82525050565b60008160601b9050919050565b6000614b7f82614b67565b9050919050565b6000614b9182614b74565b9050919050565b614ba9614ba4826139f3565b614b86565b82525050565b6000614bbb8287614b50565b602082019150614bcb828661442b565b9150614bd78285614b98565b601482019150614be78284614b98565b60148201915081905095945050505050565b600060e0820190508181036000830152614c13818a61394b565b9050614c226020830189613a05565b8181036040830152614c34818861394b565b90508181036060830152614c48818761394b565b9050614c576080830186613a9b565b614c6460a0830185613a9b565b614c7160c0830184613a9b565b98975050505050505050565b6000819050919050565b6000614ca2614c9d614c9884614c7d565b613be5565b613759565b9050919050565b614cb281614c87565b82525050565b600060c082019050614ccd6000830189614ca9565b8181036020830152614cdf818861394b565b90508181036040830152614cf3818761394b565b90508181036060830152614d07818661394b565b9050614d166080830185613a9b565b81810360a0830152614d28818461394b565b9050979650505050505050565b6000614d41828561442b565b9150614d4d828461442b565b91508190509392505050565b7f556e617574686f72697a6564206f7261636c6500000000000000000000000000600082015250565b6000614d8f601383613910565b9150614d9a82614d59565b602082019050919050565b60006020820190508181036000830152614dbe81614d82565b9050919050565b7f496e76616c69642070726f63657373206e756d62657200000000000000000000600082015250565b6000614dfb601683613910565b9150614e0682614dc5565b602082019050919050565b60006020820190508181036000830152614e2a81614dee565b9050919050565b6000614e3d828961442b565b9150614e49828861442b565b9150614e55828761442b565b9150614e618286614b50565b602082019150614e71828561442b565b9150614e7d8284614b50565b602082019150819050979650505050505050565b7f19457468657265756d205369676e6564204d6573736167653a0a333200000000600082015250565b6000614ec7601c83614420565b9150614ed282614e91565b601c82019050919050565b6000819050919050565b614ef8614ef382613b18565b614edd565b82525050565b6000614f0982614eba565b9150614f158284614ee7565b60208201915081905092915050565b7f496e76616c6964207369676e6174757265000000000000000000000000000000600082015250565b6000614f5a601183613910565b9150614f6582614f24565b602082019050919050565b60006020820190508181036000830152614f8981614f4d565b9050919050565b600060c082019050614fa56000830189613a9b565b8181036020830152614fb7818861394b565b90508181036040830152614fcb818761394b565b90508181036060830152614fdf818661394b565b9050614fee6080830185613a9b565b81810360a0830152615000818461394b565b9050979650505050505050565b600081519050919050565b600082825260208201905092915050565b60006150348261500d565b61503e8185615018565b935061504e818560208601613921565b6150578161361d565b840191505092915050565b60006080820190506150776000830187613a05565b6150846020830186613a05565b6150916040830185613a9b565b81810360608301526150a38184615029565b905095945050505050565b6000815190506150bd81613876565b92915050565b6000602082840312156150d9576150d8613609565b5b60006150e7848285016150ae565b91505092915050565b7f546f6b656e20646f6573206e6f74206578697374000000000000000000000000600082015250565b6000615126601483613910565b9150615131826150f0565b602082019050919050565b6000602082019050818103600083015261515581615119565b9050919050565b60008154615169816144a2565b6151738186614420565b9450600182166000811461518e57600181146151a3576151d6565b60ff19831686528115158202860193506151d6565b6151ac856144d3565b60005b838110156151ce578154818901526001820191506020810190506151af565b838801955050505b50505092915050565b60006151eb828461515c565b915081905092915050565b7f4e487b7100000000000000000000000000000000000000000000000000000000600052601160045260246000fd5b600061523082613759565b91507fffffffffffffffffffffffffffffffffffffffffffffffffffffffffffffffff8203615262576152616151f6565b5b600182019050919050565b7f4e487b7100000000000000000000000000000000000000000000000000000000600052601260045260246000fd5b60006040820190506152b16000830185613a05565b6152be6020830184613b7b565b9392505050565b60006152d082613759565b91506152db83613759565b92508282039050818111156152f3576152f26151f6565b5b92915050565b7f4e487b7100000000000000000000000000000000000000000000000000000000600052603160045260246000fd5b7f4e487b7100000000000000000000000000000000000000000000000000000000600052602160045260246000fd5b600060ff82169050919050565b61536d81615357565b82525050565b60006080820190506153886000830187613b7b565b6153956020830186615364565b6153a26040830185613b7b565b6153af6060830184613b7b565b9594505050505056fea26469706673582212203e045b2caf0e57930a72d3c5c8fd673e59fe32a2f8730afa55165fd9ef07049164736f6c63430008140033",
  "linkReferences": {},
  "deployedLinkReferences": {}
}