{
  "_format": "hh-sol-artifact-1",
  "contractName": "DIDRegistry",
  "sourceName": "contracts/did-registry.sol",
  "abi": [
    {
      "inputs": [
        {
          "internalType": "string",
          "name": "did",
          "type": "string"
        }
      ],
      "name": "getDIDDocument",
      "outputs": [
        {
          "components": [
            {
              "internalType": "string",
              "name": "context",
              "type": "string"
            },
            {
              "internalType": "string",
              "name": "id",
              "type": "string"
            },
            {
              "components": [
                {
                  "internalType": "string",
                  "name": "id",
                  "type": "string"
                },
                {
                  "internalType": "string",
                  "name": "methodType",
                  "type": "string"
                },
                {
                  "internalType": "string",
                  "name": "controller",
                  "type": "string"
                },
                {
                  "internalType": "string",
                  "name": "blockchainAccountId",
                  "type": "string"
                }
              ],
              "internalType": "struct DIDRegistry.VerificationMethod[]",
              "name": "verificationMethods",
              "type": "tuple[]"
            },
            {
              "internalType": "string[]",
              "name": "authentication",
              "type": "string[]"
            }
          ],
          "internalType": "struct DIDRegistry.DIDDocument",
          "name": "",
          "type": "tuple"
        }
      ],
      "stateMutability": "view",
      "type": "function"
    },
    {
      "inputs": [
        {
          "internalType": "string",
          "name": "did",
          "type": "string"
        },
        {
          "internalType": "string",
          "name": "verificationMethodId",
          "type": "string"
        },
        {
          "internalType": "string",
          "name": "methodType",
          "type": "string"
        },
        {
          "internalType": "string",
          "name": "blockchainAccountId",
          "type": "string"
        }
      ],
      "name": "registerDID",
      "outputs": [],
      "stateMutability": "nonpayable",
      "type": "function"
    }
  ],
  "bytecode": "0x608060405234801561001057600080fd5b50610ff1806100206000396000f3fe608060405234801561001057600080fd5b50600436106100365760003560e01c8063390fe3e41461003b578063784afc4e14610057575b600080fd5b6100556004803603810190610050919061084b565b610087565b005b610071600480360381019061006c9190610922565b6101ed565b60405161007e9190610c5e565b60405180910390f35b60006040518060800160405280858152602001848152602001868152602001838152509050600080866040516100bd9190610cbc565b908152602001604051809103902090506040518060400160405280601c81526020017f68747470733a2f2f7777772e77332e6f72672f6e732f6469642f7631000000008152508160000190816101139190610ee9565b50858160010190816101259190610ee9565b508060020182908060018154018082558091505060019003906000526020600020906004020160009091909190915060008201518160000190816101699190610ee9565b50602082015181600101908161017f9190610ee9565b5060408201518160020190816101959190610ee9565b5060608201518160030190816101ab9190610ee9565b50505080600301859080600181540180825580915050600190039060005260206000200160009091909190915090816101e49190610ee9565b50505050505050565b6101f56106c9565b6000826040516102059190610cbc565b908152602001604051809103902060405180608001604052908160008201805461022e90610d02565b80601f016020809104026020016040519081016040528092919081815260200182805461025a90610d02565b80156102a75780601f1061027c576101008083540402835291602001916102a7565b820191906000526020600020905b81548152906001019060200180831161028a57829003601f168201915b505050505081526020016001820180546102c090610d02565b80601f01602080910402602001604051908101604052809291908181526020018280546102ec90610d02565b80156103395780601f1061030e57610100808354040283529160200191610339565b820191906000526020600020905b81548152906001019060200180831161031c57829003601f168201915b5050505050815260200160028201805480602002602001604051908101604052809291908181526020016000905b828210156105e1578382906000526020600020906004020160405180608001604052908160008201805461039a90610d02565b80601f01602080910402602001604051908101604052809291908181526020018280546103c690610d02565b80156104135780601f106103e857610100808354040283529160200191610413565b820191906000526020600020905b8154815290600101906020018083116103f657829003601f168201915b5050505050815260200160018201805461042c90610d02565b80601f016020809104026020016040519081016040528092919081815260200182805461045890610d02565b80156104a55780601f1061047a576101008083540402835291602001916104a5565b820191906000526020600020905b81548152906001019060200180831161048857829003601f168201915b505050505081526020016002820180546104be90610d02565b80601f01602080910402602001604051908101604052809291908181526020018280546104ea90610d02565b80156105375780601f1061050c57610100808354040283529160200191610537565b820191906000526020600020905b81548152906001019060200180831161051a57829003601f168201915b5050505050815260200160038201805461055090610d02565b80601f016020809104026020016040519081016040528092919081815260200182805461057c90610d02565b80156105c95780601f1061059e576101008083540402835291602001916105c9565b820191906000526020600020905b8154815290600101906020018083116105ac57829003601f168201915b50505050508152505081526020019060010190610367565b50505050815260200160038201805480602002602001604051908101604052809291908181526020016000905b828210156106ba57838290600052602060002001805461062d90610d02565b80601f016020809104026020016040519081016040528092919081815260200182805461065990610d02565b80156106a65780601f1061067b576101008083540402835291602001916106a6565b820191906000526020600020905b81548152906001019060200180831161068957829003601f168201915b50505050508152602001906001019061060e565b50505050815250509050919050565b6040518060800160405280606081526020016060815260200160608152602001606081525090565b6000604051905090565b600080fd5b600080fd5b600080fd5b600080fd5b6000601f19601f8301169050919050565b7f4e487b7100000000000000000000000000000000000000000000000000000000600052604160045260246000fd5b6107588261070f565b810181811067ffffffffffffffff8211171561077757610776610720565b5b80604052505050565b600061078a6106f1565b9050610796828261074f565b919050565b600067ffffffffffffffff8211156107b6576107b5610720565b5b6107bf8261070f565b9050602081019050919050565b82818337600083830152505050565b60006107ee6107e98461079b565b610780565b90508281526020810184848401111561080a5761080961070a565b5b6108158482856107cc565b509392505050565b600082601f83011261083257610831610705565b5b81356108428482602086016107db565b91505092915050565b60008060008060808587031215610865576108646106fb565b5b600085013567ffffffffffffffff81111561088357610882610700565b5b61088f8782880161081d565b945050602085013567ffffffffffffffff8111156108b0576108af610700565b5b6108bc8782880161081d565b935050604085013567ffffffffffffffff8111156108dd576108dc610700565b5b6108e98782880161081d565b925050606085013567ffffffffffffffff81111561090a57610909610700565b5b6109168782880161081d565b91505092959194509250565b600060208284031215610938576109376106fb565b5b600082013567ffffffffffffffff81111561095657610955610700565b5b6109628482850161081d565b91505092915050565b600081519050919050565b600082825260208201905092915050565b60005b838110156109a557808201518184015260208101905061098a565b60008484015250505050565b60006109bc8261096b565b6109c68185610976565b93506109d6818560208601610987565b6109df8161070f565b840191505092915050565b600081519050919050565b600082825260208201905092915050565b6000819050602082019050919050565b60006080830160008301518482036000860152610a3382826109b1565b91505060208301518482036020860152610a4d82826109b1565b91505060408301518482036040860152610a6782826109b1565b91505060608301518482036060860152610a8182826109b1565b9150508091505092915050565b6000610a9a8383610a16565b905092915050565b6000602082019050919050565b6000610aba826109ea565b610ac481856109f5565b935083602082028501610ad685610a06565b8060005b85811015610b125784840389528151610af38582610a8e565b9450610afe83610aa2565b925060208a01995050600181019050610ada565b50829750879550505050505092915050565b600081519050919050565b600082825260208201905092915050565b6000819050602082019050919050565b6000610b5c83836109b1565b905092915050565b6000602082019050919050565b6000610b7c82610b24565b610b868185610b2f565b935083602082028501610b9885610b40565b8060005b85811015610bd45784840389528151610bb58582610b50565b9450610bc083610b64565b925060208a01995050600181019050610b9c565b50829750879550505050505092915050565b60006080830160008301518482036000860152610c0382826109b1565b91505060208301518482036020860152610c1d82826109b1565b91505060408301518482036040860152610c378282610aaf565b91505060608301518482036060860152610c518282610b71565b9150508091505092915050565b60006020820190508181036000830152610c788184610be6565b905092915050565b600081905092915050565b6000610c968261096b565b610ca08185610c80565b9350610cb0818560208601610987565b80840191505092915050565b6000610cc88284610c8b565b915081905092915050565b7f4e487b7100000000000000000000000000000000000000000000000000000000600052602260045260246000fd5b60006002820490506001821680610d1a57607f821691505b602082108103610d2d57610d2c610cd3565b5b50919050565b60008190508160005260206000209050919050565b60006020601f8301049050919050565b600082821b905092915050565b600060088302610d957fffffffffffffffffffffffffffffffffffffffffffffffffffffffffffffffff82610d58565b610d9f8683610d58565b95508019841693508086168417925050509392505050565b6000819050919050565b6000819050919050565b6000610de6610de1610ddc84610db7565b610dc1565b610db7565b9050919050565b6000819050919050565b610e0083610dcb565b610e14610e0c82610ded565b848454610d65565b825550505050565b600090565b610e29610e1c565b610e34818484610df7565b505050565b5b81811015610e5857610e4d600082610e21565b600181019050610e3a565b5050565b601f821115610e9d57610e6e81610d33565b610e7784610d48565b81016020851015610e86578190505b610e9a610e9285610d48565b830182610e39565b50505b505050565b600082821c905092915050565b6000610ec060001984600802610ea2565b1980831691505092915050565b6000610ed98383610eaf565b9150826002028217905092915050565b610ef28261096b565b67ffffffffffffffff811115610f0b57610f0a610720565b5b610f158254610d02565b610f20828285610e5c565b600060209050601f831160018114610f535760008415610f41578287015190505b610f4b8582610ecd565b865550610fb3565b601f198416610f6186610d33565b60005b82811015610f8957848901518255600182019150602085019450602081019050610f64565b86831015610fa65784890151610fa2601f891682610eaf565b8355505b6001600288020188555050505b50505050505056fea26469706673582212205d0059aab28ba7aa8e3723deab855fbd09db6a0d0f2328c0f561d6d7cbfec34564736f6c63430008140033",
  "linkReferences": {},
  "deployedLinkReferences": {}
}