{
  "_format": "hh-sol-artifact-1",
  "contractName": "DIDRegistry",
  "sourceName": "contracts/did-registry.sol",
  "abi": [
    {
      "anonymous": false,
      "inputs": [
        {
          "indexed": false,
          "internalType": "string",
          "name": "did",
          "type": "string"
        },
        {
          "indexed": false,
          "internalType": "string",
          "name": "blockchainAccountId",
          "type": "string"
        }
      ],
      "name": "DIDRegistered",
      "type": "event"
    },
    {
      "inputs": [
        {
          "internalType": "string",
          "name": "did",
          "type": "string"
        }
      ],
      "name": "getDIDDocument",
      "outputs": [
        {
          "components": [
            {
              "internalType": "string",
              "name": "context",
              "type": "string"
            },
            {
              "internalType": "string",
              "name": "id",
              "type": "string"
            },
            {
              "components": [
                {
                  "internalType": "string",
                  "name": "id",
                  "type": "string"
                },
                {
                  "internalType": "string",
                  "name": "methodType",
                  "type": "string"
                },
                {
                  "internalType": "string",
                  "name": "controller",
                  "type": "string"
                },
                {
                  "internalType": "string",
                  "name": "blockchainAccountId",
                  "type": "string"
                }
              ],
              "internalType": "struct DIDRegistry.VerificationMethod[]",
              "name": "verificationMethods",
              "type": "tuple[]"
            },
            {
              "internalType": "string[]",
              "name": "authentication",
              "type": "string[]"
            }
          ],
          "internalType": "struct DIDRegistry.DIDDocument",
          "name": "",
          "type": "tuple"
        }
      ],
      "stateMutability": "view",
      "type": "function"
    },
    {
      "inputs": [
        {
          "internalType": "string",
          "name": "did",
          "type": "string"
        },
        {
          "internalType": "string",
          "name": "verificationMethodId",
          "type": "string"
        },
        {
          "internalType": "string",
          "name": "methodType",
          "type": "string"
        },
        {
          "internalType": "string",
          "name": "blockchainAccountId",
          "type": "string"
        }
      ],
      "name": "registerDID",
      "outputs": [],
      "stateMutability": "nonpayable",
      "type": "function"
    }
  ],
  "bytecode": "0x608060405234801561001057600080fd5b506110ab806100206000396000f3fe608060405234801561001057600080fd5b50600436106100365760003560e01c8063390fe3e41461003b578063784afc4e14610057575b600080fd5b61005560048036038101906100509190610884565b610087565b005b610071600480360381019061006c919061095b565b610226565b60405161007e9190610c97565b60405180910390f35b60006040518060800160405280858152602001848152602001868152602001838152509050600080866040516100bd9190610cf5565b908152602001604051809103902090506040518060400160405280601c81526020017f68747470733a2f2f7777772e77332e6f72672f6e732f6469642f7631000000008152508160000190816101139190610f22565b50858160010190816101259190610f22565b508060020182908060018154018082558091505060019003906000526020600020906004020160009091909190915060008201518160000190816101699190610f22565b50602082015181600101908161017f9190610f22565b5060408201518160020190816101959190610f22565b5060608201518160030190816101ab9190610f22565b50505080600301859080600181540180825580915050600190039060005260206000200160009091909190915090816101e49190610f22565b507f3821fb4ad323658be2eee296ee06377da01cc275fe45548c9b27eca563bcdbf6868460405161021692919061103e565b60405180910390a1505050505050565b61022e610702565b60008260405161023e9190610cf5565b908152602001604051809103902060405180608001604052908160008201805461026790610d3b565b80601f016020809104026020016040519081016040528092919081815260200182805461029390610d3b565b80156102e05780601f106102b5576101008083540402835291602001916102e0565b820191906000526020600020905b8154815290600101906020018083116102c357829003601f168201915b505050505081526020016001820180546102f990610d3b565b80601f016020809104026020016040519081016040528092919081815260200182805461032590610d3b565b80156103725780601f1061034757610100808354040283529160200191610372565b820191906000526020600020905b81548152906001019060200180831161035557829003601f168201915b5050505050815260200160028201805480602002602001604051908101604052809291908181526020016000905b8282101561061a57838290600052602060002090600402016040518060800160405290816000820180546103d390610d3b565b80601f01602080910402602001604051908101604052809291908181526020018280546103ff90610d3b565b801561044c5780601f106104215761010080835404028352916020019161044c565b820191906000526020600020905b81548152906001019060200180831161042f57829003601f168201915b5050505050815260200160018201805461046590610d3b565b80601f016020809104026020016040519081016040528092919081815260200182805461049190610d3b565b80156104de5780601f106104b3576101008083540402835291602001916104de565b820191906000526020600020905b8154815290600101906020018083116104c157829003601f168201915b505050505081526020016002820180546104f790610d3b565b80601f016020809104026020016040519081016040528092919081815260200182805461052390610d3b565b80156105705780601f1061054557610100808354040283529160200191610570565b820191906000526020600020905b81548152906001019060200180831161055357829003601f168201915b5050505050815260200160038201805461058990610d3b565b80601f01602080910402602001604051908101604052809291908181526020018280546105b590610d3b565b80156106025780601f106105d757610100808354040283529160200191610602565b820191906000526020600020905b8154815290600101906020018083116105e557829003601f168201915b505050505081525050815260200190600101906103a0565b50505050815260200160038201805480602002602001604051908101604052809291908181526020016000905b828210156106f357838290600052602060002001805461066690610d3b565b80601f016020809104026020016040519081016040528092919081815260200182805461069290610d3b565b80156106df5780601f106106b4576101008083540402835291602001916106df565b820191906000526020600020905b8154815290600101906020018083116106c257829003601f168201915b505050505081526020019060010190610647565b50505050815250509050919050565b6040518060800160405280606081526020016060815260200160608152602001606081525090565b6000604051905090565b600080fd5b600080fd5b600080fd5b600080fd5b6000601f19601f8301169050919050565b7f4e487b7100000000000000000000000000000000000000000000000000000000600052604160045260246000fd5b61079182610748565b810181811067ffffffffffffffff821117156107b0576107af610759565b5b80604052505050565b60006107c361072a565b90506107cf8282610788565b919050565b600067ffffffffffffffff8211156107ef576107ee610759565b5b6107f882610748565b9050602081019050919050565b82818337600083830152505050565b6000610827610822846107d4565b6107b9565b90508281526020810184848401111561084357610842610743565b5b61084e848285610805565b509392505050565b600082601f83011261086b5761086a61073e565b5b813561087b848260208601610814565b91505092915050565b6000806000806080858703121561089e5761089d610734565b5b600085013567ffffffffffffffff8111156108bc576108bb610739565b5b6108c887828801610856565b945050602085013567ffffffffffffffff8111156108e9576108e8610739565b5b6108f587828801610856565b935050604085013567ffffffffffffffff81111561091657610915610739565b5b61092287828801610856565b925050606085013567ffffffffffffffff81111561094357610942610739565b5b61094f87828801610856565b91505092959194509250565b60006020828403121561097157610970610734565b5b600082013567ffffffffffffffff81111561098f5761098e610739565b5b61099b84828501610856565b91505092915050565b600081519050919050565b600082825260208201905092915050565b60005b838110156109de5780820151818401526020810190506109c3565b60008484015250505050565b60006109f5826109a4565b6109ff81856109af565b9350610a0f8185602086016109c0565b610a1881610748565b840191505092915050565b600081519050919050565b600082825260208201905092915050565b6000819050602082019050919050565b60006080830160008301518482036000860152610a6c82826109ea565b91505060208301518482036020860152610a8682826109ea565b91505060408301518482036040860152610aa082826109ea565b91505060608301518482036060860152610aba82826109ea565b9150508091505092915050565b6000610ad38383610a4f565b905092915050565b6000602082019050919050565b6000610af382610a23565b610afd8185610a2e565b935083602082028501610b0f85610a3f565b8060005b85811015610b4b5784840389528151610b2c8582610ac7565b9450610b3783610adb565b925060208a01995050600181019050610b13565b50829750879550505050505092915050565b600081519050919050565b600082825260208201905092915050565b6000819050602082019050919050565b6000610b9583836109ea565b905092915050565b6000602082019050919050565b6000610bb582610b5d565b610bbf8185610b68565b935083602082028501610bd185610b79565b8060005b85811015610c0d5784840389528151610bee8582610b89565b9450610bf983610b9d565b925060208a01995050600181019050610bd5565b50829750879550505050505092915050565b60006080830160008301518482036000860152610c3c82826109ea565b91505060208301518482036020860152610c5682826109ea565b91505060408301518482036040860152610c708282610ae8565b91505060608301518482036060860152610c8a8282610baa565b9150508091505092915050565b60006020820190508181036000830152610cb18184610c1f565b905092915050565b600081905092915050565b6000610ccf826109a4565b610cd98185610cb9565b9350610ce98185602086016109c0565b80840191505092915050565b6000610d018284610cc4565b915081905092915050565b7f4e487b7100000000000000000000000000000000000000000000000000000000600052602260045260246000fd5b60006002820490506001821680610d5357607f821691505b602082108103610d6657610d65610d0c565b5b50919050565b60008190508160005260206000209050919050565b60006020601f8301049050919050565b600082821b905092915050565b600060088302610dce7fffffffffffffffffffffffffffffffffffffffffffffffffffffffffffffffff82610d91565b610dd88683610d91565b95508019841693508086168417925050509392505050565b6000819050919050565b6000819050919050565b6000610e1f610e1a610e1584610df0565b610dfa565b610df0565b9050919050565b6000819050919050565b610e3983610e04565b610e4d610e4582610e26565b848454610d9e565b825550505050565b600090565b610e62610e55565b610e6d818484610e30565b505050565b5b81811015610e9157610e86600082610e5a565b600181019050610e73565b5050565b601f821115610ed657610ea781610d6c565b610eb084610d81565b81016020851015610ebf578190505b610ed3610ecb85610d81565b830182610e72565b50505b505050565b600082821c905092915050565b6000610ef960001984600802610edb565b1980831691505092915050565b6000610f128383610ee8565b9150826002028217905092915050565b610f2b826109a4565b67ffffffffffffffff811115610f4457610f43610759565b5b610f4e8254610d3b565b610f59828285610e95565b600060209050601f831160018114610f8c5760008415610f7a578287015190505b610f848582610f06565b865550610fec565b601f198416610f9a86610d6c565b60005b82811015610fc257848901518255600182019150602085019450602081019050610f9d565b86831015610fdf5784890151610fdb601f891682610ee8565b8355505b6001600288020188555050505b505050505050565b600082825260208201905092915050565b6000611010826109a4565b61101a8185610ff4565b935061102a8185602086016109c0565b61103381610748565b840191505092915050565b600060408201905081810360008301526110588185611005565b9050818103602083015261106c8184611005565b9050939250505056fea264697066735822122031aa4c92f2a911c0c88f2698468c9689c2f725f0de0e1d4818c32134442c98f064736f6c63430008140033",
  "linkReferences": {},
  "deployedLinkReferences": {}
}