{
  "_format": "hh-sol-artifact-1",
  "contractName": "OracleRegistry",
  "sourceName": "contracts/oracle-registry.sol",
  "abi": [
    {
      "inputs": [],
      "stateMutability": "nonpayable",
      "type": "constructor"
    },
    {
      "inputs": [],
      "name": "AccessControlBadConfirmation",
      "type": "error"
    },
    {
      "inputs": [
        {
          "internalType": "address",
          "name": "account",
          "type": "address"
        },
        {
          "internalType": "bytes32",
          "name": "neededRole",
          "type": "bytes32"
        }
      ],
      "name": "AccessControlUnauthorizedAccount",
      "type": "error"
    },
    {
      "anonymous": false,
      "inputs": [
        {
          "indexed": true,
          "internalType": "address",
          "name": "oracle",
          "type": "address"
        },
        {
          "indexed": false,
          "internalType": "string",
          "name": "newDid",
          "type": "string"
        }
      ],
      "name": "OracleDIDUpdated",
      "type": "event"
    },
    {
      "anonymous": false,
      "inputs": [
        {
          "indexed": true,
          "internalType": "address",
          "name": "oracle",
          "type": "address"
        },
        {
          "indexed": false,
          "internalType": "string",
          "name": "did",
          "type": "string"
        }
      ],
      "name": "OracleRegistered",
      "type": "event"
    },
    {
      "anonymous": false,
      "inputs": [
        {
          "indexed": true,
          "internalType": "address",
          "name": "oracle",
          "type": "address"
        }
      ],
      "name": "OracleRemoved",
      "type": "event"
    },
    {
      "anonymous": false,
      "inputs": [
        {
          "indexed": true,
          "internalType": "bytes32",
          "name": "role",
          "type": "bytes32"
        },
        {
          "indexed": true,
          "internalType": "bytes32",
          "name": "previousAdminRole",
          "type": "bytes32"
        },
        {
          "indexed": true,
          "internalType": "bytes32",
          "name": "newAdminRole",
          "type": "bytes32"
        }
      ],
      "name": "RoleAdminChanged",
      "type": "event"
    },
    {
      "anonymous": false,
      "inputs": [
        {
          "indexed": true,
          "internalType": "bytes32",
          "name": "role",
          "type": "bytes32"
        },
        {
          "indexed": true,
          "internalType": "address",
          "name": "account",
          "type": "address"
        },
        {
          "indexed": true,
          "internalType": "address",
          "name": "sender",
          "type": "address"
        }
      ],
      "name": "RoleGranted",
      "type": "event"
    },
    {
      "anonymous": false,
      "inputs": [
        {
          "indexed": true,
          "internalType": "bytes32",
          "name": "role",
          "type": "bytes32"
        },
        {
          "indexed": true,
          "internalType": "address",
          "name": "account",
          "type": "address"
        },
        {
          "indexed": true,
          "internalType": "address",
          "name": "sender",
          "type": "address"
        }
      ],
      "name": "RoleRevoked",
      "type": "event"
    },
    {
      "inputs": [],
      "name": "DEFAULT_ADMIN_ROLE",
      "outputs": [
        {
          "internalType": "bytes32",
          "name": "",
          "type": "bytes32"
        }
      ],
      "stateMutability": "view",
      "type": "function"
    },
    {
      "inputs": [],
      "name": "ORACLE_ROLE",
      "outputs": [
        {
          "internalType": "bytes32",
          "name": "",
          "type": "bytes32"
        }
      ],
      "stateMutability": "view",
      "type": "function"
    },
    {
      "inputs": [
        {
          "internalType": "address",
          "name": "oracle",
          "type": "address"
        },
        {
          "internalType": "string",
          "name": "did",
          "type": "string"
        }
      ],
      "name": "addOracle",
      "outputs": [],
      "stateMutability": "nonpayable",
      "type": "function"
    },
    {
      "inputs": [
        {
          "internalType": "address",
          "name": "oracle",
          "type": "address"
        }
      ],
      "name": "getOracle",
      "outputs": [
        {
          "components": [
            {
              "internalType": "address",
              "name": "oracleAddress",
              "type": "address"
            },
            {
              "internalType": "string",
              "name": "did",
              "type": "string"
            }
          ],
          "internalType": "struct OracleRegistry.Oracle",
          "name": "",
          "type": "tuple"
        }
      ],
      "stateMutability": "view",
      "type": "function"
    },
    {
      "inputs": [
        {
          "internalType": "bytes32",
          "name": "role",
          "type": "bytes32"
        }
      ],
      "name": "getRoleAdmin",
      "outputs": [
        {
          "internalType": "bytes32",
          "name": "",
          "type": "bytes32"
        }
      ],
      "stateMutability": "view",
      "type": "function"
    },
    {
      "inputs": [
        {
          "internalType": "bytes32",
          "name": "role",
          "type": "bytes32"
        },
        {
          "internalType": "address",
          "name": "account",
          "type": "address"
        }
      ],
      "name": "grantRole",
      "outputs": [],
      "stateMutability": "nonpayable",
      "type": "function"
    },
    {
      "inputs": [
        {
          "internalType": "bytes32",
          "name": "role",
          "type": "bytes32"
        },
        {
          "internalType": "address",
          "name": "account",
          "type": "address"
        }
      ],
      "name": "hasRole",
      "outputs": [
        {
          "internalType": "bool",
          "name": "",
          "type": "bool"
        }
      ],
      "stateMutability": "view",
      "type": "function"
    },
    {
      "inputs": [
        {
          "internalType": "address",
          "name": "oracle",
          "type": "address"
        }
      ],
      "name": "isOracle",
      "outputs": [
        {
          "internalType": "bool",
          "name": "",
          "type": "bool"
        }
      ],
      "stateMutability": "view",
      "type": "function"
    },
    {
      "inputs": [
        {
          "internalType": "address",
          "name": "",
          "type": "address"
        }
      ],
      "name": "oracles",
      "outputs": [
        {
          "internalType": "address",
          "name": "oracleAddress",
          "type": "address"
        },
        {
          "internalType": "string",
          "name": "did",
          "type": "string"
        }
      ],
      "stateMutability": "view",
      "type": "function"
    },
    {
      "inputs": [
        {
          "internalType": "address",
          "name": "oracle",
          "type": "address"
        }
      ],
      "name": "removeOracle",
      "outputs": [],
      "stateMutability": "nonpayable",
      "type": "function"
    },
    {
      "inputs": [
        {
          "internalType": "bytes32",
          "name": "role",
          "type": "bytes32"
        },
        {
          "internalType": "address",
          "name": "callerConfirmation",
          "type": "address"
        }
      ],
      "name": "renounceRole",
      "outputs": [],
      "stateMutability": "nonpayable",
      "type": "function"
    },
    {
      "inputs": [
        {
          "internalType": "bytes32",
          "name": "role",
          "type": "bytes32"
        },
        {
          "internalType": "address",
          "name": "account",
          "type": "address"
        }
      ],
      "name": "revokeRole",
      "outputs": [],
      "stateMutability": "nonpayable",
      "type": "function"
    },
    {
      "inputs": [
        {
          "internalType": "bytes4",
          "name": "interfaceId",
          "type": "bytes4"
        }
      ],
      "name": "supportsInterface",
      "outputs": [
        {
          "internalType": "bool",
          "name": "",
          "type": "bool"
        }
      ],
      "stateMutability": "view",
      "type": "function"
    },
    {
      "inputs": [
        {
          "internalType": "address",
          "name": "oracle",
          "type": "address"
        },
        {
          "internalType": "string",
          "name": "newDid",
          "type": "string"
        }
      ],
      "name": "updateOracleDID",
      "outputs": [],
      "stateMutability": "nonpayable",
      "type": "function"
    }
  ],
  "bytecode": "0x60806040523480156200001157600080fd5b50620000276000801b336200002e60201b60201c565b50620001a3565b60006200004283836200013160201b60201c565b6200012657600160008085815260200190815260200160002060000160008473ffffffffffffffffffffffffffffffffffffffff1673ffffffffffffffffffffffffffffffffffffffff16815260200190815260200160002060006101000a81548160ff021916908315150217905550620000c26200019b60201b60201c565b73ffffffffffffffffffffffffffffffffffffffff168273ffffffffffffffffffffffffffffffffffffffff16847f2f8788117e7eff1d82e926ec794901d17c78024a50270940304540a733656f0d60405160405180910390a4600190506200012b565b600090505b92915050565b600080600084815260200190815260200160002060000160008373ffffffffffffffffffffffffffffffffffffffff1673ffffffffffffffffffffffffffffffffffffffff16815260200190815260200160002060009054906101000a900460ff16905092915050565b600033905090565b61195680620001b36000396000f3fe608060405234801561001057600080fd5b50600436106100ea5760003560e01c80633efb4f121161008c578063a97e5c9311610066578063a97e5c931461025b578063addd50991461028b578063d547741f146102bc578063fdc85fc4146102d8576100ea565b80633efb4f12146101f157806391d148541461020d578063a217fddf1461023d576100ea565b806310d3d22e116100c857806310d3d22e14610159578063248a9ca3146101895780632f2ff15d146101b957806336568abe146101d5576100ea565b806301ffc9a7146100ef578063071a56df1461011f57806307e2cea51461013b575b600080fd5b61010960048036038101906101049190611042565b6102f4565b604051610116919061108a565b60405180910390f35b61013960048036038101906101349190611249565b61036e565b005b610143610593565b60405161015091906112be565b60405180910390f35b610173600480360381019061016e91906112d9565b6105b7565b60405161018091906113d1565b60405180910390f35b6101a3600480360381019061019e919061141f565b6106f8565b6040516101b091906112be565b60405180910390f35b6101d360048036038101906101ce919061144c565b610717565b005b6101ef60048036038101906101ea919061144c565b610739565b005b61020b60048036038101906102069190611249565b6107b4565b005b6102276004803603810190610222919061144c565b610935565b604051610234919061108a565b60405180910390f35b61024561099f565b60405161025291906112be565b60405180910390f35b610275600480360381019061027091906112d9565b6109a6565b604051610282919061108a565b60405180910390f35b6102a560048036038101906102a091906112d9565b6109d9565b6040516102b39291906114e5565b60405180910390f35b6102d660048036038101906102d1919061144c565b610aa5565b005b6102f260048036038101906102ed91906112d9565b610ac7565b005b60007f7965db0b000000000000000000000000000000000000000000000000000000007bffffffffffffffffffffffffffffffffffffffffffffffffffffffff1916827bffffffffffffffffffffffffffffffffffffffffffffffffffffffff19161480610367575061036682610c8f565b5b9050919050565b6000801b61037b81610cf9565b600073ffffffffffffffffffffffffffffffffffffffff16600160008573ffffffffffffffffffffffffffffffffffffffff1673ffffffffffffffffffffffffffffffffffffffff16815260200190815260200160002060000160009054906101000a900473ffffffffffffffffffffffffffffffffffffffff1673ffffffffffffffffffffffffffffffffffffffff161461044c576040517f08c379a000000000000000000000000000000000000000000000000000000000815260040161044390611561565b60405180910390fd5b60405180604001604052808473ffffffffffffffffffffffffffffffffffffffff16815260200183815250600160008573ffffffffffffffffffffffffffffffffffffffff1673ffffffffffffffffffffffffffffffffffffffff16815260200190815260200160002060008201518160000160006101000a81548173ffffffffffffffffffffffffffffffffffffffff021916908373ffffffffffffffffffffffffffffffffffffffff16021790555060208201518160010190816105129190611797565b509050506105407f68e79a7bf1e0bc45d0a330c573bc367f9cf464fd326078812f301165fbda4ef184610717565b8273ffffffffffffffffffffffffffffffffffffffff167ff545a9af646b70163c1732c00973245b51468b9158282edf881a20b200f4ad1f836040516105869190611869565b60405180910390a2505050565b7f68e79a7bf1e0bc45d0a330c573bc367f9cf464fd326078812f301165fbda4ef181565b6105bf610f49565b600160008373ffffffffffffffffffffffffffffffffffffffff1673ffffffffffffffffffffffffffffffffffffffff1681526020019081526020016000206040518060400160405290816000820160009054906101000a900473ffffffffffffffffffffffffffffffffffffffff1673ffffffffffffffffffffffffffffffffffffffff1673ffffffffffffffffffffffffffffffffffffffff16815260200160018201805461066f906115b0565b80601f016020809104026020016040519081016040528092919081815260200182805461069b906115b0565b80156106e85780601f106106bd576101008083540402835291602001916106e8565b820191906000526020600020905b8154815290600101906020018083116106cb57829003601f168201915b5050505050815250509050919050565b6000806000838152602001908152602001600020600101549050919050565b610720826106f8565b61072981610cf9565b6107338383610d0d565b50505050565b610741610dfe565b73ffffffffffffffffffffffffffffffffffffffff168173ffffffffffffffffffffffffffffffffffffffff16146107a5576040517f6697b23200000000000000000000000000000000000000000000000000000000815260040160405180910390fd5b6107af8282610e06565b505050565b6000801b6107c181610cf9565b600073ffffffffffffffffffffffffffffffffffffffff16600160008573ffffffffffffffffffffffffffffffffffffffff1673ffffffffffffffffffffffffffffffffffffffff16815260200190815260200160002060000160009054906101000a900473ffffffffffffffffffffffffffffffffffffffff1673ffffffffffffffffffffffffffffffffffffffff1603610892576040517f08c379a0000000000000000000000000000000000000000000000000000000008152600401610889906118d7565b60405180910390fd5b81600160008573ffffffffffffffffffffffffffffffffffffffff1673ffffffffffffffffffffffffffffffffffffffff16815260200190815260200160002060010190816108e19190611797565b508273ffffffffffffffffffffffffffffffffffffffff167f5d368b4e24001f385df61d288afab9fb44952519a3714ad02681426f18a607c6836040516109289190611869565b60405180910390a2505050565b600080600084815260200190815260200160002060000160008373ffffffffffffffffffffffffffffffffffffffff1673ffffffffffffffffffffffffffffffffffffffff16815260200190815260200160002060009054906101000a900460ff16905092915050565b6000801b81565b60006109d27f68e79a7bf1e0bc45d0a330c573bc367f9cf464fd326078812f301165fbda4ef183610935565b9050919050565b60016020528060005260406000206000915090508060000160009054906101000a900473ffffffffffffffffffffffffffffffffffffffff1690806001018054610a22906115b0565b80601f0160208091040260200160405190810160405280929190818152602001828054610a4e906115b0565b8015610a9b5780601f10610a7057610100808354040283529160200191610a9b565b820191906000526020600020905b815481529060010190602001808311610a7e57829003601f168201915b5050505050905082565b610aae826106f8565b610ab781610cf9565b610ac18383610e06565b50505050565b6000801b610ad481610cf9565b600073ffffffffffffffffffffffffffffffffffffffff16600160008473ffffffffffffffffffffffffffffffffffffffff1673ffffffffffffffffffffffffffffffffffffffff16815260200190815260200160002060000160009054906101000a900473ffffffffffffffffffffffffffffffffffffffff1673ffffffffffffffffffffffffffffffffffffffff1603610ba5576040517f08c379a0000000000000000000000000000000000000000000000000000000008152600401610b9c906118d7565b60405180910390fd5b600160008373ffffffffffffffffffffffffffffffffffffffff1673ffffffffffffffffffffffffffffffffffffffff168152602001908152602001600020600080820160006101000a81549073ffffffffffffffffffffffffffffffffffffffff0219169055600182016000610c1c9190610f79565b5050610c487f68e79a7bf1e0bc45d0a330c573bc367f9cf464fd326078812f301165fbda4ef183610aa5565b8173ffffffffffffffffffffffffffffffffffffffff167f9c8e7d83025bef8a04c664b2f753f64b8814bdb7e27291d7e50935f18cc3c71260405160405180910390a25050565b60007f01ffc9a7000000000000000000000000000000000000000000000000000000007bffffffffffffffffffffffffffffffffffffffffffffffffffffffff1916827bffffffffffffffffffffffffffffffffffffffffffffffffffffffff1916149050919050565b610d0a81610d05610dfe565b610ef8565b50565b6000610d198383610935565b610df357600160008085815260200190815260200160002060000160008473ffffffffffffffffffffffffffffffffffffffff1673ffffffffffffffffffffffffffffffffffffffff16815260200190815260200160002060006101000a81548160ff021916908315150217905550610d90610dfe565b73ffffffffffffffffffffffffffffffffffffffff168273ffffffffffffffffffffffffffffffffffffffff16847f2f8788117e7eff1d82e926ec794901d17c78024a50270940304540a733656f0d60405160405180910390a460019050610df8565b600090505b92915050565b600033905090565b6000610e128383610935565b15610eed57600080600085815260200190815260200160002060000160008473ffffffffffffffffffffffffffffffffffffffff1673ffffffffffffffffffffffffffffffffffffffff16815260200190815260200160002060006101000a81548160ff021916908315150217905550610e8a610dfe565b73ffffffffffffffffffffffffffffffffffffffff168273ffffffffffffffffffffffffffffffffffffffff16847ff6391f5c32d9c69d2a47ea670b442974b53935d1edc7fd64eb21e047a839171b60405160405180910390a460019050610ef2565b600090505b92915050565b610f028282610935565b610f455780826040517fe2517d3f000000000000000000000000000000000000000000000000000000008152600401610f3c9291906118f7565b60405180910390fd5b5050565b6040518060400160405280600073ffffffffffffffffffffffffffffffffffffffff168152602001606081525090565b508054610f85906115b0565b6000825580601f10610f975750610fb6565b601f016020900490600052602060002090810190610fb59190610fb9565b5b50565b5b80821115610fd2576000816000905550600101610fba565b5090565b6000604051905090565b600080fd5b600080fd5b60007fffffffff0000000000000000000000000000000000000000000000000000000082169050919050565b61101f81610fea565b811461102a57600080fd5b50565b60008135905061103c81611016565b92915050565b60006020828403121561105857611057610fe0565b5b60006110668482850161102d565b91505092915050565b60008115159050919050565b6110848161106f565b82525050565b600060208201905061109f600083018461107b565b92915050565b600073ffffffffffffffffffffffffffffffffffffffff82169050919050565b60006110d0826110a5565b9050919050565b6110e0816110c5565b81146110eb57600080fd5b50565b6000813590506110fd816110d7565b92915050565b600080fd5b600080fd5b6000601f19601f8301169050919050565b7f4e487b7100000000000000000000000000000000000000000000000000000000600052604160045260246000fd5b6111568261110d565b810181811067ffffffffffffffff821117156111755761117461111e565b5b80604052505050565b6000611188610fd6565b9050611194828261114d565b919050565b600067ffffffffffffffff8211156111b4576111b361111e565b5b6111bd8261110d565b9050602081019050919050565b82818337600083830152505050565b60006111ec6111e784611199565b61117e565b90508281526020810184848401111561120857611207611108565b5b6112138482856111ca565b509392505050565b600082601f8301126112305761122f611103565b5b81356112408482602086016111d9565b91505092915050565b600080604083850312156112605761125f610fe0565b5b600061126e858286016110ee565b925050602083013567ffffffffffffffff81111561128f5761128e610fe5565b5b61129b8582860161121b565b9150509250929050565b6000819050919050565b6112b8816112a5565b82525050565b60006020820190506112d360008301846112af565b92915050565b6000602082840312156112ef576112ee610fe0565b5b60006112fd848285016110ee565b91505092915050565b61130f816110c5565b82525050565b600081519050919050565b600082825260208201905092915050565b60005b8381101561134f578082015181840152602081019050611334565b60008484015250505050565b600061136682611315565b6113708185611320565b9350611380818560208601611331565b6113898161110d565b840191505092915050565b60006040830160008301516113ac6000860182611306565b50602083015184820360208601526113c4828261135b565b9150508091505092915050565b600060208201905081810360008301526113eb8184611394565b905092915050565b6113fc816112a5565b811461140757600080fd5b50565b600081359050611419816113f3565b92915050565b60006020828403121561143557611434610fe0565b5b60006114438482850161140a565b91505092915050565b6000806040838503121561146357611462610fe0565b5b60006114718582860161140a565b9250506020611482858286016110ee565b9150509250929050565b611495816110c5565b82525050565b600082825260208201905092915050565b60006114b782611315565b6114c1818561149b565b93506114d1818560208601611331565b6114da8161110d565b840191505092915050565b60006040820190506114fa600083018561148c565b818103602083015261150c81846114ac565b90509392505050565b7f4f7261636c6520616c7265616479207265676973746572656400000000000000600082015250565b600061154b60198361149b565b915061155682611515565b602082019050919050565b6000602082019050818103600083015261157a8161153e565b9050919050565b7f4e487b7100000000000000000000000000000000000000000000000000000000600052602260045260246000fd5b600060028204905060018216806115c857607f821691505b6020821081036115db576115da611581565b5b50919050565b60008190508160005260206000209050919050565b60006020601f8301049050919050565b600082821b905092915050565b6000600883026116437fffffffffffffffffffffffffffffffffffffffffffffffffffffffffffffffff82611606565b61164d8683611606565b95508019841693508086168417925050509392505050565b6000819050919050565b6000819050919050565b600061169461168f61168a84611665565b61166f565b611665565b9050919050565b6000819050919050565b6116ae83611679565b6116c26116ba8261169b565b848454611613565b825550505050565b600090565b6116d76116ca565b6116e28184846116a5565b505050565b5b81811015611706576116fb6000826116cf565b6001810190506116e8565b5050565b601f82111561174b5761171c816115e1565b611725846115f6565b81016020851015611734578190505b611748611740856115f6565b8301826116e7565b50505b505050565b600082821c905092915050565b600061176e60001984600802611750565b1980831691505092915050565b6000611787838361175d565b9150826002028217905092915050565b6117a082611315565b67ffffffffffffffff8111156117b9576117b861111e565b5b6117c382546115b0565b6117ce82828561170a565b600060209050601f83116001811461180157600084156117ef578287015190505b6117f9858261177b565b865550611861565b601f19841661180f866115e1565b60005b8281101561183757848901518255600182019150602085019450602081019050611812565b868310156118545784890151611850601f89168261175d565b8355505b6001600288020188555050505b505050505050565b6000602082019050818103600083015261188381846114ac565b905092915050565b7f4f7261636c65206e6f7420726567697374657265640000000000000000000000600082015250565b60006118c160158361149b565b91506118cc8261188b565b602082019050919050565b600060208201905081810360008301526118f0816118b4565b9050919050565b600060408201905061190c600083018561148c565b61191960208301846112af565b939250505056fea264697066735822122004f27ab6d8bc364ce2b662eb433a6c78e7313862c27e53154c9586666df859d464736f6c63430008140033",
  "linkReferences": {},
  "deployedLinkReferences": {}
}